{
  "contractName": "SaveChildren",
  "abi": [
    {
      "anonymous": false,
      "inputs": [
        {
          "indexed": false,
          "internalType": "uint256",
          "name": "campId",
          "type": "uint256"
        }
      ],
      "name": "CampaignFinished",
      "type": "event"
    },
    {
      "anonymous": false,
      "inputs": [
        {
          "indexed": false,
          "internalType": "address payable",
          "name": "from",
          "type": "address"
        },
        {
          "indexed": false,
          "internalType": "uint256",
          "name": "amount",
          "type": "uint256"
        },
        {
          "indexed": false,
          "internalType": "uint256",
          "name": "campId",
          "type": "uint256"
        }
      ],
      "name": "DonationEvent",
      "type": "event"
    },
    {
      "stateMutability": "nonpayable",
      "type": "fallback"
    },
    {
      "inputs": [
        {
          "internalType": "address",
          "name": "",
          "type": "address"
        }
      ],
      "name": "admins",
      "outputs": [
        {
          "internalType": "bool",
          "name": "",
          "type": "bool"
        }
      ],
      "stateMutability": "view",
      "type": "function",
      "constant": true
    },
    {
      "inputs": [
        {
          "internalType": "uint256",
          "name": "",
          "type": "uint256"
        }
      ],
      "name": "campaigns",
      "outputs": [
        {
          "internalType": "string",
          "name": "name",
          "type": "string"
        },
        {
          "internalType": "string",
          "name": "description",
          "type": "string"
        },
        {
          "internalType": "string",
          "name": "email",
          "type": "string"
        },
        {
          "internalType": "string",
          "name": "imageUrl",
          "type": "string"
        },
        {
          "internalType": "address payable",
          "name": "owner",
          "type": "address"
        },
        {
          "internalType": "uint256",
          "name": "timeCreated",
          "type": "uint256"
        },
        {
          "internalType": "uint256",
          "name": "blockDeadline",
          "type": "uint256"
        },
        {
          "internalType": "uint256",
          "name": "goal",
          "type": "uint256"
        },
        {
          "internalType": "uint256",
          "name": "raised",
          "type": "uint256"
        },
        {
          "internalType": "uint256",
          "name": "id",
          "type": "uint256"
        },
        {
          "internalType": "bool",
          "name": "isFinished",
          "type": "bool"
        }
      ],
      "stateMutability": "view",
      "type": "function",
      "constant": true
    },
    {
      "inputs": [
        {
          "internalType": "uint256",
          "name": "",
          "type": "uint256"
        },
        {
          "internalType": "uint256",
          "name": "",
          "type": "uint256"
        }
      ],
      "name": "donors",
      "outputs": [
        {
          "internalType": "address",
          "name": "",
          "type": "address"
        }
      ],
      "stateMutability": "view",
      "type": "function",
      "constant": true
    },
    {
      "inputs": [
        {
          "internalType": "address",
          "name": "",
          "type": "address"
        },
        {
          "internalType": "uint256",
          "name": "",
          "type": "uint256"
        }
      ],
      "name": "mails",
      "outputs": [
        {
          "internalType": "string",
          "name": "",
          "type": "string"
        }
      ],
      "stateMutability": "view",
      "type": "function",
      "constant": true
    },
    {
      "inputs": [
        {
          "internalType": "string",
          "name": "_name",
          "type": "string"
        },
        {
          "internalType": "string",
          "name": "_description",
          "type": "string"
        },
        {
          "internalType": "address",
          "name": "_owner",
          "type": "address"
        },
        {
          "internalType": "uint256",
          "name": "_blockDeadline",
          "type": "uint256"
        },
        {
          "internalType": "uint256",
          "name": "_goal",
          "type": "uint256"
        },
        {
          "internalType": "string",
          "name": "_email",
          "type": "string"
        },
        {
          "internalType": "string",
          "name": "_url",
          "type": "string"
        }
      ],
      "name": "createCampaign",
      "outputs": [
        {
          "internalType": "bool",
          "name": "",
          "type": "bool"
        }
      ],
      "stateMutability": "nonpayable",
      "type": "function"
    },
    {
      "inputs": [
        {
          "internalType": "uint256",
          "name": "id",
          "type": "uint256"
        },
        {
          "internalType": "string",
          "name": "_email",
          "type": "string"
        }
      ],
      "name": "donate",
      "outputs": [],
      "stateMutability": "payable",
      "type": "function",
      "payable": true
    },
    {
      "inputs": [
        {
          "internalType": "uint256",
          "name": "id",
          "type": "uint256"
        }
      ],
      "name": "getDonorsLength",
      "outputs": [
        {
          "internalType": "uint256",
          "name": "",
          "type": "uint256"
        }
      ],
      "stateMutability": "view",
      "type": "function",
      "constant": true
    },
    {
      "inputs": [
        {
          "internalType": "uint256",
          "name": "id",
          "type": "uint256"
        }
      ],
      "name": "getDonors",
      "outputs": [
        {
          "internalType": "address[]",
          "name": "",
          "type": "address[]"
        }
      ],
      "stateMutability": "view",
      "type": "function",
      "constant": true
    },
    {
      "inputs": [],
      "name": "getCampaignsLength",
      "outputs": [
        {
          "internalType": "uint256",
          "name": "",
          "type": "uint256"
        }
      ],
      "stateMutability": "view",
      "type": "function",
      "constant": true
    },
    {
      "inputs": [],
      "name": "getCampaigns",
      "outputs": [
        {
          "components": [
            {
              "internalType": "string",
              "name": "name",
              "type": "string"
            },
            {
              "internalType": "string",
              "name": "description",
              "type": "string"
            },
            {
              "internalType": "string",
              "name": "email",
              "type": "string"
            },
            {
              "internalType": "string",
              "name": "imageUrl",
              "type": "string"
            },
            {
              "internalType": "address payable",
              "name": "owner",
              "type": "address"
            },
            {
              "internalType": "uint256",
              "name": "timeCreated",
              "type": "uint256"
            },
            {
              "internalType": "uint256",
              "name": "blockDeadline",
              "type": "uint256"
            },
            {
              "internalType": "uint256",
              "name": "goal",
              "type": "uint256"
            },
            {
              "internalType": "uint256",
              "name": "raised",
              "type": "uint256"
            },
            {
              "internalType": "uint256",
              "name": "id",
              "type": "uint256"
            },
            {
              "internalType": "bool",
              "name": "isFinished",
              "type": "bool"
            }
          ],
          "internalType": "struct SaveChildren.Campaign[]",
          "name": "",
          "type": "tuple[]"
        }
      ],
      "stateMutability": "view",
      "type": "function",
      "constant": true
    }
  ],
  "bytecode": "0x6080604052336000806101000a81548173ffffffffffffffffffffffffffffffffffffffff021916908373ffffffffffffffffffffffffffffffffffffffff16021790555034801561005057600080fd5b50611d6d806100606000396000f3fe6080604052600436106100955760003560e01c806383bd62dd1161005957806383bd62dd146101e35780638d59d1f114610220578063a6b036331461023c578063dae0dc9714610267578063fb5474ae146102a457610096565b8063066e6503146100a8578063141961bc146100e5578063295165111461012c578063429b62e514610169578063790ec51d146101a657610096565b5b3480156100a257600080fd5b50600080fd5b3480156100b457600080fd5b506100cf60048036038101906100ca9190611407565b6102cf565b6040516100dc919061199a565b60405180910390f35b3480156100f157600080fd5b5061010c60048036038101906101079190611407565b6102ef565b6040516101239b9a999897969594939291906118b3565b60405180910390f35b34801561013857600080fd5b50610153600480360381019061014e9190611407565b6105a6565b6040516101609190611832565b60405180910390f35b34801561017557600080fd5b50610190600480360381019061018b9190611288565b610647565b60405161019d9190611876565b60405180910390f35b3480156101b257600080fd5b506101cd60048036038101906101c891906112f5565b610667565b6040516101da9190611876565b60405180910390f35b3480156101ef57600080fd5b5061020a60048036038101906102059190611490565b61085b565b60405161021791906117e0565b60405180910390f35b61023a60048036038101906102359190611434565b6108a9565b005b34801561024857600080fd5b50610251610cc8565b60405161025e9190611854565b60405180910390f35b34801561027357600080fd5b5061028e600480360381019061028991906112b5565b611013565b60405161029b9190611891565b60405180910390f35b3480156102b057600080fd5b506102b96110cc565b6040516102c6919061199a565b60405180910390f35b600060046000838152602001908152602001600020805490509050919050565b600181815481106102ff57600080fd5b90600052602060002090600b020160009150905080600001805461032290611b9c565b80601f016020809104026020016040519081016040528092919081815260200182805461034e90611b9c565b801561039b5780601f106103705761010080835404028352916020019161039b565b820191906000526020600020905b81548152906001019060200180831161037e57829003601f168201915b5050505050908060010180546103b090611b9c565b80601f01602080910402602001604051908101604052809291908181526020018280546103dc90611b9c565b80156104295780601f106103fe57610100808354040283529160200191610429565b820191906000526020600020905b81548152906001019060200180831161040c57829003601f168201915b50505050509080600201805461043e90611b9c565b80601f016020809104026020016040519081016040528092919081815260200182805461046a90611b9c565b80156104b75780601f1061048c576101008083540402835291602001916104b7565b820191906000526020600020905b81548152906001019060200180831161049a57829003601f168201915b5050505050908060030180546104cc90611b9c565b80601f01602080910402602001604051908101604052809291908181526020018280546104f890611b9c565b80156105455780601f1061051a57610100808354040283529160200191610545565b820191906000526020600020905b81548152906001019060200180831161052857829003601f168201915b5050505050908060040160009054906101000a900473ffffffffffffffffffffffffffffffffffffffff169080600501549080600601549080600701549080600801549080600901549080600a0160009054906101000a900460ff1690508b565b60606004600083815260200190815260200160002080548060200260200160405190810160405280929190818152602001828054801561063b57602002820191906000526020600020905b8160009054906101000a900473ffffffffffffffffffffffffffffffffffffffff1673ffffffffffffffffffffffffffffffffffffffff16815260200190600101908083116105f1575b50505050509050919050565b60026020528060005260406000206000915054906101000a900460ff1681565b60006106716110d9565b88816000018190525087816020018190525086816080019073ffffffffffffffffffffffffffffffffffffffff16908173ffffffffffffffffffffffffffffffffffffffff1681525050428160a0018181525050858160c0018181525050848160e00181815250506000816101400190151590811515815250508381604001819052508281606001819052506001805490508161012001818152505060018190806001815401808255809150506001900390600052602060002090600b0201600090919091909150600082015181600001908051906020019061075592919061114b565b50602082015181600101908051906020019061077292919061114b565b50604082015181600201908051906020019061078f92919061114b565b5060608201518160030190805190602001906107ac92919061114b565b5060808201518160040160006101000a81548173ffffffffffffffffffffffffffffffffffffffff021916908373ffffffffffffffffffffffffffffffffffffffff16021790555060a0820151816005015560c0820151816006015560e082015181600701556101008201518160080155610120820151816009015561014082015181600a0160006101000a81548160ff02191690831515021790555050506001915050979650505050505050565b6004602052816000526040600020818154811061087757600080fd5b906000526020600020016000915091509054906101000a900473ffffffffffffffffffffffffffffffffffffffff1681565b600182815481106108bd576108bc611c5d565b5b90600052602060002090600b0201600a0160009054906101000a900460ff161561091c576040517f08c379a00000000000000000000000000000000000000000000000000000000081526004016109139061197a565b60405180910390fd5b600182815481106109305761092f611c5d565b5b90600052602060002090600b0201600601544211156109c257600180838154811061095e5761095d611c5d565b5b90600052602060002090600b0201600a0160006101000a81548160ff0219169083151502179055507fe56a737eb0c0ee5006fce634c08f1871f50440c81db290174ca29693dfa9b2e8826040516109b5919061199a565b60405180910390a1600080fd5b6000339050600183815481106109db576109da611c5d565b5b90600052602060002090600b020160040160009054906101000a900473ffffffffffffffffffffffffffffffffffffffff1673ffffffffffffffffffffffffffffffffffffffff166108fc349081150290604051600060405180830381858888f19350505050158015610a52573d6000803e3d6000fd5b503460018481548110610a6857610a67611c5d565b5b90600052602060002090600b02016008016000828254610a889190611aaa565b9250508190555060046000848152602001908152602001600020819080600181540180825580915050600190039060005260206000200160009091909190916101000a81548173ffffffffffffffffffffffffffffffffffffffff021916908373ffffffffffffffffffffffffffffffffffffffff1602179055506003600060018581548110610b1b57610b1a611c5d565b5b90600052602060002090600b020160040160009054906101000a900473ffffffffffffffffffffffffffffffffffffffff1673ffffffffffffffffffffffffffffffffffffffff1673ffffffffffffffffffffffffffffffffffffffff16815260200190815260200160002082908060018154018082558091505060019003906000526020600020016000909190919091509080519060200190610bc092919061114b565b5060018381548110610bd557610bd4611c5d565b5b90600052602060002090600b02016007015460018481548110610bfb57610bfa611c5d565b5b90600052602060002090600b0201600801541115610c88576001808481548110610c2857610c27611c5d565b5b90600052602060002090600b0201600a0160006101000a81548160ff0219169083151502179055507fe56a737eb0c0ee5006fce634c08f1871f50440c81db290174ca29693dfa9b2e883604051610c7f919061199a565b60405180910390a15b7f1f7f60fa7a0315c6a22ba0c122d2b40ad612cc5dc66602de5d7056e067e88232813485604051610cbb939291906117fb565b60405180910390a1505050565b60606001805480602002602001604051908101604052809291908181526020016000905b8282101561100a57838290600052602060002090600b020160405180610160016040529081600082018054610d2090611b9c565b80601f0160208091040260200160405190810160405280929190818152602001828054610d4c90611b9c565b8015610d995780601f10610d6e57610100808354040283529160200191610d99565b820191906000526020600020905b815481529060010190602001808311610d7c57829003601f168201915b50505050508152602001600182018054610db290611b9c565b80601f0160208091040260200160405190810160405280929190818152602001828054610dde90611b9c565b8015610e2b5780601f10610e0057610100808354040283529160200191610e2b565b820191906000526020600020905b815481529060010190602001808311610e0e57829003601f168201915b50505050508152602001600282018054610e4490611b9c565b80601f0160208091040260200160405190810160405280929190818152602001828054610e7090611b9c565b8015610ebd5780601f10610e9257610100808354040283529160200191610ebd565b820191906000526020600020905b815481529060010190602001808311610ea057829003601f168201915b50505050508152602001600382018054610ed690611b9c565b80601f0160208091040260200160405190810160405280929190818152602001828054610f0290611b9c565b8015610f4f5780601f10610f2457610100808354040283529160200191610f4f565b820191906000526020600020905b815481529060010190602001808311610f3257829003601f168201915b505050505081526020016004820160009054906101000a900473ffffffffffffffffffffffffffffffffffffffff1673ffffffffffffffffffffffffffffffffffffffff1673ffffffffffffffffffffffffffffffffffffffff1681526020016005820154815260200160068201548152602001600782015481526020016008820154815260200160098201548152602001600a820160009054906101000a900460ff16151515158152505081526020019060010190610cec565b50505050905090565b6003602052816000526040600020818154811061102f57600080fd5b9060005260206000200160009150915050805461104b90611b9c565b80601f016020809104026020016040519081016040528092919081815260200182805461107790611b9c565b80156110c45780601f10611099576101008083540402835291602001916110c4565b820191906000526020600020905b8154815290600101906020018083116110a757829003601f168201915b505050505081565b6000600180549050905090565b60405180610160016040528060608152602001606081526020016060815260200160608152602001600073ffffffffffffffffffffffffffffffffffffffff16815260200160008152602001600081526020016000815260200160008152602001600081526020016000151581525090565b82805461115790611b9c565b90600052602060002090601f01602090048101928261117957600085556111c0565b82601f1061119257805160ff19168380011785556111c0565b828001600101855582156111c0579182015b828111156111bf5782518255916020019190600101906111a4565b5b5090506111cd91906111d1565b5090565b5b808211156111ea5760008160009055506001016111d2565b5090565b60006112016111fc846119da565b6119b5565b90508281526020810184848401111561121d5761121c611cc0565b5b611228848285611b5a565b509392505050565b60008135905061123f81611d09565b92915050565b600082601f83011261125a57611259611cbb565b5b813561126a8482602086016111ee565b91505092915050565b60008135905061128281611d20565b92915050565b60006020828403121561129e5761129d611cca565b5b60006112ac84828501611230565b91505092915050565b600080604083850312156112cc576112cb611cca565b5b60006112da85828601611230565b92505060206112eb85828601611273565b9150509250929050565b600080600080600080600060e0888a03121561131457611313611cca565b5b600088013567ffffffffffffffff81111561133257611331611cc5565b5b61133e8a828b01611245565b975050602088013567ffffffffffffffff81111561135f5761135e611cc5565b5b61136b8a828b01611245565b965050604061137c8a828b01611230565b955050606061138d8a828b01611273565b945050608061139e8a828b01611273565b93505060a088013567ffffffffffffffff8111156113bf576113be611cc5565b5b6113cb8a828b01611245565b92505060c088013567ffffffffffffffff8111156113ec576113eb611cc5565b5b6113f88a828b01611245565b91505092959891949750929550565b60006020828403121561141d5761141c611cca565b5b600061142b84828501611273565b91505092915050565b6000806040838503121561144b5761144a611cca565b5b600061145985828601611273565b925050602083013567ffffffffffffffff81111561147a57611479611cc5565b5b61148685828601611245565b9150509250929050565b600080604083850312156114a7576114a6611cca565b5b60006114b585828601611273565b92505060206114c685828601611273565b9150509250929050565b60006114dc838361151a565b60208301905092915050565b60006114f483836116be565b905092915050565b61150581611b12565b82525050565b61151481611b12565b82525050565b61152381611b00565b82525050565b61153281611b00565b82525050565b600061154382611a2b565b61154d8185611a66565b935061155883611a0b565b8060005b8381101561158957815161157088826114d0565b975061157b83611a4c565b92505060018101905061155c565b5085935050505092915050565b60006115a182611a36565b6115ab8185611a77565b9350836020820285016115bd85611a1b565b8060005b858110156115f957848403895281516115da85826114e8565b94506115e583611a59565b925060208a019950506001810190506115c1565b50829750879550505050505092915050565b61161481611b24565b82525050565b61162381611b24565b82525050565b600061163482611a41565b61163e8185611a88565b935061164e818560208601611b69565b61165781611ccf565b840191505092915050565b600061166d82611a41565b6116778185611a99565b9350611687818560208601611b69565b61169081611ccf565b840191505092915050565b60006116a8601983611a99565b91506116b382611ce0565b602082019050919050565b60006101608301600083015184820360008601526116dc8282611629565b915050602083015184820360208601526116f68282611629565b915050604083015184820360408601526117108282611629565b9150506060830151848203606086015261172a8282611629565b915050608083015161173f60808601826114fc565b5060a083015161175260a08601826117c2565b5060c083015161176560c08601826117c2565b5060e083015161177860e08601826117c2565b5061010083015161178d6101008601826117c2565b506101208301516117a26101208601826117c2565b506101408301516117b761014086018261160b565b508091505092915050565b6117cb81611b50565b82525050565b6117da81611b50565b82525050565b60006020820190506117f56000830184611529565b92915050565b6000606082019050611810600083018661150b565b61181d60208301856117d1565b61182a60408301846117d1565b949350505050565b6000602082019050818103600083015261184c8184611538565b905092915050565b6000602082019050818103600083015261186e8184611596565b905092915050565b600060208201905061188b600083018461161a565b92915050565b600060208201905081810360008301526118ab8184611662565b905092915050565b60006101608201905081810360008301526118ce818e611662565b905081810360208301526118e2818d611662565b905081810360408301526118f6818c611662565b9050818103606083015261190a818b611662565b9050611919608083018a61150b565b61192660a08301896117d1565b61193360c08301886117d1565b61194060e08301876117d1565b61194e6101008301866117d1565b61195c6101208301856117d1565b61196a61014083018461161a565b9c9b505050505050505050505050565b600060208201905081810360008301526119938161169b565b9050919050565b60006020820190506119af60008301846117d1565b92915050565b60006119bf6119d0565b90506119cb8282611bce565b919050565b6000604051905090565b600067ffffffffffffffff8211156119f5576119f4611c8c565b5b6119fe82611ccf565b9050602081019050919050565b6000819050602082019050919050565b6000819050602082019050919050565b600081519050919050565b600081519050919050565b600081519050919050565b6000602082019050919050565b6000602082019050919050565b600082825260208201905092915050565b600082825260208201905092915050565b600082825260208201905092915050565b600082825260208201905092915050565b6000611ab582611b50565b9150611ac083611b50565b9250827fffffffffffffffffffffffffffffffffffffffffffffffffffffffffffffffff03821115611af557611af4611bff565b5b828201905092915050565b6000611b0b82611b30565b9050919050565b6000611b1d82611b30565b9050919050565b60008115159050919050565b600073ffffffffffffffffffffffffffffffffffffffff82169050919050565b6000819050919050565b82818337600083830152505050565b60005b83811015611b87578082015181840152602081019050611b6c565b83811115611b96576000848401525b50505050565b60006002820490506001821680611bb457607f821691505b60208210811415611bc857611bc7611c2e565b5b50919050565b611bd782611ccf565b810181811067ffffffffffffffff82111715611bf657611bf5611c8c565b5b80604052505050565b7f4e487b7100000000000000000000000000000000000000000000000000000000600052601160045260246000fd5b7f4e487b7100000000000000000000000000000000000000000000000000000000600052602260045260246000fd5b7f4e487b7100000000000000000000000000000000000000000000000000000000600052603260045260246000fd5b7f4e487b7100000000000000000000000000000000000000000000000000000000600052604160045260246000fd5b600080fd5b600080fd5b600080fd5b600080fd5b6000601f19601f8301169050919050565b7f54686520646f6e6174696f6e206861732066696e697368656400000000000000600082015250565b611d1281611b00565b8114611d1d57600080fd5b50565b611d2981611b50565b8114611d3457600080fd5b5056fea2646970667358221220c5fd20775cc577b560c499769cc5f48c09c115f443233b5b11d4b34bd1b4eb1164736f6c63430008060033",
  "immutableReferences": {},
  "source": "pragma solidity ^0.8.0;\n\ncontract SaveChildren{\n\n    struct Campaign{\n        string name;\n        string description;\n        string email;\n        string imageUrl;\n        address payable owner;\n        uint256 timeCreated;\n        uint256 blockDeadline;\n        uint256 goal;\n        uint256 raised;\n        uint256 id;\n        bool isFinished;\n    }\n\n    //----------------------------FIELDS----------------\n\n    address private owner = msg.sender;\n\n    Campaign[] public campaigns;\n\n    mapping(address => bool) public admins;\n\n    mapping(address => string[]) public mails;\n\n    //map of all donors of a certain campaign\n    mapping(uint256 => address[]) public donors;\n\n\n    //----------------------------MODIFIERS----------------\n\n\n\n    //----------------------------METHODS----------------\n\n    fallback() external{\n        revert();\n    }\n\n    function createCampaign(string memory _name, string memory _description, address _owner, uint256  _blockDeadline, uint256  _goal, string memory _email, string memory _url) public returns(bool){\n\n        Campaign memory newCamp;\n        newCamp.name = _name;\n        newCamp.description = _description;\n        newCamp.owner = payable(_owner);\n        newCamp.timeCreated = block.timestamp;\n        newCamp.blockDeadline = _blockDeadline;\n        newCamp.goal = _goal;\n        newCamp.isFinished = false;\n        newCamp.email = _email;\n        newCamp.imageUrl = _url;\n        newCamp.id = campaigns.length;\n        campaigns.push(newCamp);\n\n\n\n        return true;\n    }\n    // payable funkcija - iz adrese u contract\n    // payable adresa - contract salje na adresu\n\n    function donate(uint256 id, string memory _email) external payable{\n\n        require(!campaigns[id].isFinished, \"The donation has finished\");\n\n        if(block.timestamp > campaigns[id].blockDeadline){\n            campaigns[id].isFinished = true;\n            emit CampaignFinished(id);\n            revert();\n        }\n\n        address payable donor = payable(msg.sender);\n\n        campaigns[id].owner.transfer(msg.value);\n        campaigns[id].raised+=msg.value;\n\n        donors[id].push(donor);\n        mails[campaigns[id].owner].push(_email);\n\n        if(campaigns[id].raised > campaigns[id].goal){\n            campaigns[id].isFinished = true;\n            emit CampaignFinished(id);\n        }\n\n        emit DonationEvent(donor, msg.value, id);\n    }\n\n    function getDonorsLength(uint256 id) public view returns(uint256){\n        return donors[id].length;\n    }\n\n    function getDonors(uint256 id) public view returns(address[] memory){\n        return donors[id];\n    }\n\n    function getCampaignsLength() public view returns(uint256){\n        return campaigns.length;\n    }\n\n    function getCampaigns() public view returns(Campaign[] memory){\n        return campaigns;\n    }\n\n    //----------------------------EVENTS----------------\n    event DonationEvent(address payable from, uint256 amount, uint256 campId);\n\n    event CampaignFinished(uint256 campId);\n}",
  "sourcePath": "D:/dapps/SaveChildrenProject-master/src/contracts/SaveChildren.sol",
  "compiler": {
    "name": "solc",
    "version": "0.8.6+commit.11564f7e.Emscripten.clang"
  },
  "schemaVersion": "3.4.1",
  "updatedAt": "2021-07-17T22:12:14.659Z",
  "networkType": "ethereum",
  "devdoc": {
    "kind": "dev",
    "methods": {},
    "version": 1
  },
  "userdoc": {
    "kind": "user",
    "methods": {},
    "version": 1
  }
}