{
  "contractName": "SaveChildren",
  "abi": [
    {
      "anonymous": false,
      "inputs": [
        {
          "indexed": false,
          "internalType": "uint256",
          "name": "campId",
          "type": "uint256"
        }
      ],
      "name": "CampaignFinished",
      "type": "event"
    },
    {
      "anonymous": false,
      "inputs": [
        {
          "indexed": false,
          "internalType": "address payable",
          "name": "from",
          "type": "address"
        },
        {
          "indexed": false,
          "internalType": "uint256",
          "name": "amount",
          "type": "uint256"
        },
        {
          "indexed": false,
          "internalType": "uint256",
          "name": "campId",
          "type": "uint256"
        }
      ],
      "name": "DonationEvent",
      "type": "event"
    },
    {
      "stateMutability": "nonpayable",
      "type": "fallback"
    },
    {
      "inputs": [
        {
          "internalType": "address",
          "name": "",
          "type": "address"
        }
      ],
      "name": "admins",
      "outputs": [
        {
          "internalType": "bool",
          "name": "",
          "type": "bool"
        }
      ],
      "stateMutability": "view",
      "type": "function",
      "constant": true
    },
    {
      "inputs": [
        {
          "internalType": "uint256",
          "name": "",
          "type": "uint256"
        }
      ],
      "name": "campaigns",
      "outputs": [
        {
          "internalType": "string",
          "name": "name",
          "type": "string"
        },
        {
          "internalType": "string",
          "name": "description",
          "type": "string"
        },
        {
          "internalType": "string",
          "name": "email",
          "type": "string"
        },
        {
          "internalType": "string",
          "name": "imageUrl",
          "type": "string"
        },
        {
          "internalType": "address payable",
          "name": "owner",
          "type": "address"
        },
        {
          "internalType": "uint256",
          "name": "timeCreated",
          "type": "uint256"
        },
        {
          "internalType": "uint256",
          "name": "blockDeadline",
          "type": "uint256"
        },
        {
          "internalType": "uint256",
          "name": "goal",
          "type": "uint256"
        },
        {
          "internalType": "uint256",
          "name": "raised",
          "type": "uint256"
        },
        {
          "internalType": "uint256",
          "name": "id",
          "type": "uint256"
        },
        {
          "internalType": "bool",
          "name": "isFinished",
          "type": "bool"
        }
      ],
      "stateMutability": "view",
      "type": "function",
      "constant": true
    },
    {
      "inputs": [
        {
          "internalType": "uint256",
          "name": "",
          "type": "uint256"
        },
        {
          "internalType": "uint256",
          "name": "",
          "type": "uint256"
        }
      ],
      "name": "donors",
      "outputs": [
        {
          "internalType": "address payable",
          "name": "from",
          "type": "address"
        },
        {
          "internalType": "uint256",
          "name": "amount",
          "type": "uint256"
        }
      ],
      "stateMutability": "view",
      "type": "function",
      "constant": true
    },
    {
      "inputs": [
        {
          "internalType": "uint256",
          "name": "",
          "type": "uint256"
        },
        {
          "internalType": "uint256",
          "name": "",
          "type": "uint256"
        }
      ],
      "name": "mails",
      "outputs": [
        {
          "internalType": "string",
          "name": "",
          "type": "string"
        }
      ],
      "stateMutability": "view",
      "type": "function",
      "constant": true
    },
    {
      "inputs": [
        {
          "internalType": "string",
          "name": "_name",
          "type": "string"
        },
        {
          "internalType": "string",
          "name": "_description",
          "type": "string"
        },
        {
          "internalType": "address",
          "name": "_owner",
          "type": "address"
        },
        {
          "internalType": "uint256",
          "name": "_blockDeadline",
          "type": "uint256"
        },
        {
          "internalType": "uint256",
          "name": "_goal",
          "type": "uint256"
        },
        {
          "internalType": "string",
          "name": "_email",
          "type": "string"
        },
        {
          "internalType": "string",
          "name": "_url",
          "type": "string"
        }
      ],
      "name": "createCampaign",
      "outputs": [
        {
          "internalType": "bool",
          "name": "",
          "type": "bool"
        }
      ],
      "stateMutability": "nonpayable",
      "type": "function"
    },
    {
      "inputs": [
        {
          "internalType": "uint256",
          "name": "id",
          "type": "uint256"
        },
        {
          "internalType": "string",
          "name": "_email",
          "type": "string"
        }
      ],
      "name": "donate",
      "outputs": [],
      "stateMutability": "payable",
      "type": "function",
      "payable": true
    },
    {
      "inputs": [
        {
          "internalType": "uint256",
          "name": "id",
          "type": "uint256"
        }
      ],
      "name": "getDonorsLength",
      "outputs": [
        {
          "internalType": "uint256",
          "name": "",
          "type": "uint256"
        }
      ],
      "stateMutability": "view",
      "type": "function",
      "constant": true
    },
    {
      "inputs": [
        {
          "internalType": "uint256",
          "name": "id",
          "type": "uint256"
        }
      ],
      "name": "getDonors",
      "outputs": [
        {
          "components": [
            {
              "internalType": "address payable",
              "name": "from",
              "type": "address"
            },
            {
              "internalType": "uint256",
              "name": "amount",
              "type": "uint256"
            }
          ],
          "internalType": "struct SaveChildren.Donation[]",
          "name": "",
          "type": "tuple[]"
        }
      ],
      "stateMutability": "view",
      "type": "function",
      "constant": true
    },
    {
      "inputs": [],
      "name": "getCampaignsLength",
      "outputs": [
        {
          "internalType": "uint256",
          "name": "",
          "type": "uint256"
        }
      ],
      "stateMutability": "view",
      "type": "function",
      "constant": true
    },
    {
      "inputs": [],
      "name": "getCampaigns",
      "outputs": [
        {
          "components": [
            {
              "internalType": "string",
              "name": "name",
              "type": "string"
            },
            {
              "internalType": "string",
              "name": "description",
              "type": "string"
            },
            {
              "internalType": "string",
              "name": "email",
              "type": "string"
            },
            {
              "internalType": "string",
              "name": "imageUrl",
              "type": "string"
            },
            {
              "internalType": "address payable",
              "name": "owner",
              "type": "address"
            },
            {
              "internalType": "uint256",
              "name": "timeCreated",
              "type": "uint256"
            },
            {
              "internalType": "uint256",
              "name": "blockDeadline",
              "type": "uint256"
            },
            {
              "internalType": "uint256",
              "name": "goal",
              "type": "uint256"
            },
            {
              "internalType": "uint256",
              "name": "raised",
              "type": "uint256"
            },
            {
              "internalType": "uint256",
              "name": "id",
              "type": "uint256"
            },
            {
              "internalType": "bool",
              "name": "isFinished",
              "type": "bool"
            }
          ],
          "internalType": "struct SaveChildren.Campaign[]",
          "name": "",
          "type": "tuple[]"
        }
      ],
      "stateMutability": "view",
      "type": "function",
      "constant": true
    },
    {
      "inputs": [
        {
          "internalType": "uint256",
          "name": "id",
          "type": "uint256"
        }
      ],
      "name": "getMailsById",
      "outputs": [
        {
          "internalType": "string[]",
          "name": "",
          "type": "string[]"
        }
      ],
      "stateMutability": "view",
      "type": "function",
      "constant": true
    }
  ],
  "bytecode": "0x6080604052336000806101000a81548173ffffffffffffffffffffffffffffffffffffffff021916908373ffffffffffffffffffffffffffffffffffffffff16021790555034801561005057600080fd5b50611f08806100606000396000f3fe6080604052600436106100a05760003560e01c8063429b62e511610064578063429b62e5146101ee578063790ec51d1461022b57806383bd62dd146102685780638d59d1f1146102a6578063a6b03633146102c2578063fb5474ae146102ed576100a1565b8063066e6503146100b3578063131666c3146100f0578063141961bc1461012d5780632951651114610174578063429831e7146101b1576100a1565b5b3480156100ad57600080fd5b50600080fd5b3480156100bf57600080fd5b506100da60048036038101906100d5919061149f565b610318565b6040516100e79190611afc565b60405180910390f35b3480156100fc57600080fd5b506101176004803603810190610112919061149f565b610338565b6040516101249190611972565b60405180910390f35b34801561013957600080fd5b50610154600480360381019061014f919061149f565b610424565b60405161016b9b9a99989796959493929190611a15565b60405180910390f35b34801561018057600080fd5b5061019b6004803603810190610196919061149f565b6106db565b6040516101a891906119b6565b60405180910390f35b3480156101bd57600080fd5b506101d860048036038101906101d39190611528565b6107ad565b6040516101e591906119f3565b60405180910390f35b3480156101fa57600080fd5b5061021560048036038101906102109190611360565b610866565b60405161022291906119d8565b60405180910390f35b34801561023757600080fd5b50610252600480360381019061024d919061138d565b610886565b60405161025f91906119d8565b60405180910390f35b34801561027457600080fd5b5061028f600480360381019061028a9190611528565b610a7a565b60405161029d929190611912565b60405180910390f35b6102c060048036038101906102bb91906114cc565b610adb565b005b3480156102ce57600080fd5b506102d7610e29565b6040516102e49190611994565b60405180910390f35b3480156102f957600080fd5b50610302611174565b60405161030f9190611afc565b60405180910390f35b600060046000838152602001908152602001600020805490509050919050565b606060036000838152602001908152602001600020805480602002602001604051908101604052809291908181526020016000905b8282101561041957838290600052602060002001805461038c90611d37565b80601f01602080910402602001604051908101604052809291908181526020018280546103b890611d37565b80156104055780601f106103da57610100808354040283529160200191610405565b820191906000526020600020905b8154815290600101906020018083116103e857829003601f168201915b50505050508152602001906001019061036d565b505050509050919050565b6001818154811061043457600080fd5b90600052602060002090600b020160009150905080600001805461045790611d37565b80601f016020809104026020016040519081016040528092919081815260200182805461048390611d37565b80156104d05780601f106104a5576101008083540402835291602001916104d0565b820191906000526020600020905b8154815290600101906020018083116104b357829003601f168201915b5050505050908060010180546104e590611d37565b80601f016020809104026020016040519081016040528092919081815260200182805461051190611d37565b801561055e5780601f106105335761010080835404028352916020019161055e565b820191906000526020600020905b81548152906001019060200180831161054157829003601f168201915b50505050509080600201805461057390611d37565b80601f016020809104026020016040519081016040528092919081815260200182805461059f90611d37565b80156105ec5780601f106105c1576101008083540402835291602001916105ec565b820191906000526020600020905b8154815290600101906020018083116105cf57829003601f168201915b50505050509080600301805461060190611d37565b80601f016020809104026020016040519081016040528092919081815260200182805461062d90611d37565b801561067a5780601f1061064f5761010080835404028352916020019161067a565b820191906000526020600020905b81548152906001019060200180831161065d57829003601f168201915b5050505050908060040160009054906101000a900473ffffffffffffffffffffffffffffffffffffffff169080600501549080600601549080600701549080600801549080600901549080600a0160009054906101000a900460ff1690508b565b606060046000838152602001908152602001600020805480602002602001604051908101604052809291908181526020016000905b828210156107a257838290600052602060002090600202016040518060400160405290816000820160009054906101000a900473ffffffffffffffffffffffffffffffffffffffff1673ffffffffffffffffffffffffffffffffffffffff1673ffffffffffffffffffffffffffffffffffffffff16815260200160018201548152505081526020019060010190610710565b505050509050919050565b600360205281600052604060002081815481106107c957600080fd5b906000526020600020016000915091505080546107e590611d37565b80601f016020809104026020016040519081016040528092919081815260200182805461081190611d37565b801561085e5780601f106108335761010080835404028352916020019161085e565b820191906000526020600020905b81548152906001019060200180831161084157829003601f168201915b505050505081565b60026020528060005260406000206000915054906101000a900460ff1681565b6000610890611181565b88816000018190525087816020018190525086816080019073ffffffffffffffffffffffffffffffffffffffff16908173ffffffffffffffffffffffffffffffffffffffff1681525050428160a0018181525050858160c0018181525050848160e00181815250506000816101400190151590811515815250508381604001819052508281606001819052506001805490508161012001818152505060018190806001815401808255809150506001900390600052602060002090600b020160009091909190915060008201518160000190805190602001906109749291906111f3565b5060208201518160010190805190602001906109919291906111f3565b5060408201518160020190805190602001906109ae9291906111f3565b5060608201518160030190805190602001906109cb9291906111f3565b5060808201518160040160006101000a81548173ffffffffffffffffffffffffffffffffffffffff021916908373ffffffffffffffffffffffffffffffffffffffff16021790555060a0820151816005015560c0820151816006015560e082015181600701556101008201518160080155610120820151816009015561014082015181600a0160006101000a81548160ff02191690831515021790555050506001915050979650505050505050565b60046020528160005260406000208181548110610a9657600080fd5b9060005260206000209060020201600091509150508060000160009054906101000a900473ffffffffffffffffffffffffffffffffffffffff16908060010154905082565b60018281548110610aef57610aee611df8565b5b90600052602060002090600b0201600a0160009054906101000a900460ff1615610b4e576040517f08c379a0000000000000000000000000000000000000000000000000000000008152600401610b4590611adc565b60405180910390fd5b60018281548110610b6257610b61611df8565b5b90600052602060002090600b020160060154421115610bf4576001808381548110610b9057610b8f611df8565b5b90600052602060002090600b0201600a0160006101000a81548160ff0219169083151502179055507fe56a737eb0c0ee5006fce634c08f1871f50440c81db290174ca29693dfa9b2e882604051610be79190611afc565b60405180910390a1600080fd5b600033905060018381548110610c0d57610c0c611df8565b5b90600052602060002090600b020160040160009054906101000a900473ffffffffffffffffffffffffffffffffffffffff1673ffffffffffffffffffffffffffffffffffffffff166108fc349081150290604051600060405180830381858888f19350505050158015610c84573d6000803e3d6000fd5b503460018481548110610c9a57610c99611df8565b5b90600052602060002090600b02016008016000828254610cba9190611c45565b92505081905550610cc9611279565b81816000019073ffffffffffffffffffffffffffffffffffffffff16908173ffffffffffffffffffffffffffffffffffffffff1681525050348160200181815250506004600085815260200190815260200160002081908060018154018082558091505060019003906000526020600020906002020160009091909190915060008201518160000160006101000a81548173ffffffffffffffffffffffffffffffffffffffff021916908373ffffffffffffffffffffffffffffffffffffffff1602179055506020820151816001015550506003600085815260200190815260200160002083908060018154018082558091505060019003906000526020600020016000909190919091509080519060200190610de79291906111f3565b507f1f7f60fa7a0315c6a22ba0c122d2b40ad612cc5dc66602de5d7056e067e88232823486604051610e1b9392919061193b565b60405180910390a150505050565b60606001805480602002602001604051908101604052809291908181526020016000905b8282101561116b57838290600052602060002090600b020160405180610160016040529081600082018054610e8190611d37565b80601f0160208091040260200160405190810160405280929190818152602001828054610ead90611d37565b8015610efa5780601f10610ecf57610100808354040283529160200191610efa565b820191906000526020600020905b815481529060010190602001808311610edd57829003601f168201915b50505050508152602001600182018054610f1390611d37565b80601f0160208091040260200160405190810160405280929190818152602001828054610f3f90611d37565b8015610f8c5780601f10610f6157610100808354040283529160200191610f8c565b820191906000526020600020905b815481529060010190602001808311610f6f57829003601f168201915b50505050508152602001600282018054610fa590611d37565b80601f0160208091040260200160405190810160405280929190818152602001828054610fd190611d37565b801561101e5780601f10610ff35761010080835404028352916020019161101e565b820191906000526020600020905b81548152906001019060200180831161100157829003601f168201915b5050505050815260200160038201805461103790611d37565b80601f016020809104026020016040519081016040528092919081815260200182805461106390611d37565b80156110b05780601f10611085576101008083540402835291602001916110b0565b820191906000526020600020905b81548152906001019060200180831161109357829003601f168201915b505050505081526020016004820160009054906101000a900473ffffffffffffffffffffffffffffffffffffffff1673ffffffffffffffffffffffffffffffffffffffff1673ffffffffffffffffffffffffffffffffffffffff1681526020016005820154815260200160068201548152602001600782015481526020016008820154815260200160098201548152602001600a820160009054906101000a900460ff16151515158152505081526020019060010190610e4d565b50505050905090565b6000600180549050905090565b60405180610160016040528060608152602001606081526020016060815260200160608152602001600073ffffffffffffffffffffffffffffffffffffffff16815260200160008152602001600081526020016000815260200160008152602001600081526020016000151581525090565b8280546111ff90611d37565b90600052602060002090601f0160209004810192826112215760008555611268565b82601f1061123a57805160ff1916838001178555611268565b82800160010185558215611268579182015b8281111561126757825182559160200191906001019061124c565b5b50905061127591906112a9565b5090565b6040518060400160405280600073ffffffffffffffffffffffffffffffffffffffff168152602001600081525090565b5b808211156112c25760008160009055506001016112aa565b5090565b60006112d96112d484611b3c565b611b17565b9050828152602081018484840111156112f5576112f4611e5b565b5b611300848285611cf5565b509392505050565b60008135905061131781611ea4565b92915050565b600082601f83011261133257611331611e56565b5b81356113428482602086016112c6565b91505092915050565b60008135905061135a81611ebb565b92915050565b60006020828403121561137657611375611e65565b5b600061138484828501611308565b91505092915050565b600080600080600080600060e0888a0312156113ac576113ab611e65565b5b600088013567ffffffffffffffff8111156113ca576113c9611e60565b5b6113d68a828b0161131d565b975050602088013567ffffffffffffffff8111156113f7576113f6611e60565b5b6114038a828b0161131d565b96505060406114148a828b01611308565b95505060606114258a828b0161134b565b94505060806114368a828b0161134b565b93505060a088013567ffffffffffffffff81111561145757611456611e60565b5b6114638a828b0161131d565b92505060c088013567ffffffffffffffff81111561148457611483611e60565b5b6114908a828b0161131d565b91505092959891949750929550565b6000602082840312156114b5576114b4611e65565b5b60006114c38482850161134b565b91505092915050565b600080604083850312156114e3576114e2611e65565b5b60006114f18582860161134b565b925050602083013567ffffffffffffffff81111561151257611511611e60565b5b61151e8582860161131d565b9150509250929050565b6000806040838503121561153f5761153e611e65565b5b600061154d8582860161134b565b925050602061155e8582860161134b565b9150509250929050565b6000611574838361172c565b905092915050565b600061158883836117c1565b905092915050565b600061159c83836118c5565b60408301905092915050565b6115b181611cad565b82525050565b6115c081611cad565b82525050565b60006115d182611b9d565b6115db8185611bf0565b9350836020820285016115ed85611b6d565b8060005b85811015611629578484038952815161160a8582611568565b945061161583611bc9565b925060208a019950506001810190506115f1565b50829750879550505050505092915050565b600061164682611ba8565b6116508185611c01565b93508360208202850161166285611b7d565b8060005b8581101561169e578484038952815161167f858261157c565b945061168a83611bd6565b925060208a01995050600181019050611666565b50829750879550505050505092915050565b60006116bb82611bb3565b6116c58185611c12565b93506116d083611b8d565b8060005b838110156117015781516116e88882611590565b97506116f383611be3565b9250506001810190506116d4565b5085935050505092915050565b61171781611cbf565b82525050565b61172681611cbf565b82525050565b600061173782611bbe565b6117418185611c23565b9350611751818560208601611d04565b61175a81611e6a565b840191505092915050565b600061177082611bbe565b61177a8185611c34565b935061178a818560208601611d04565b61179381611e6a565b840191505092915050565b60006117ab601983611c34565b91506117b682611e7b565b602082019050919050565b60006101608301600083015184820360008601526117df828261172c565b915050602083015184820360208601526117f9828261172c565b91505060408301518482036040860152611813828261172c565b9150506060830151848203606086015261182d828261172c565b915050608083015161184260808601826115a8565b5060a083015161185560a08601826118f4565b5060c083015161186860c08601826118f4565b5060e083015161187b60e08601826118f4565b506101008301516118906101008601826118f4565b506101208301516118a56101208601826118f4565b506101408301516118ba61014086018261170e565b508091505092915050565b6040820160008201516118db60008501826115a8565b5060208201516118ee60208501826118f4565b50505050565b6118fd81611ceb565b82525050565b61190c81611ceb565b82525050565b600060408201905061192760008301856115b7565b6119346020830184611903565b9392505050565b600060608201905061195060008301866115b7565b61195d6020830185611903565b61196a6040830184611903565b949350505050565b6000602082019050818103600083015261198c81846115c6565b905092915050565b600060208201905081810360008301526119ae818461163b565b905092915050565b600060208201905081810360008301526119d081846116b0565b905092915050565b60006020820190506119ed600083018461171d565b92915050565b60006020820190508181036000830152611a0d8184611765565b905092915050565b6000610160820190508181036000830152611a30818e611765565b90508181036020830152611a44818d611765565b90508181036040830152611a58818c611765565b90508181036060830152611a6c818b611765565b9050611a7b608083018a6115b7565b611a8860a0830189611903565b611a9560c0830188611903565b611aa260e0830187611903565b611ab0610100830186611903565b611abe610120830185611903565b611acc61014083018461171d565b9c9b505050505050505050505050565b60006020820190508181036000830152611af58161179e565b9050919050565b6000602082019050611b116000830184611903565b92915050565b6000611b21611b32565b9050611b2d8282611d69565b919050565b6000604051905090565b600067ffffffffffffffff821115611b5757611b56611e27565b5b611b6082611e6a565b9050602081019050919050565b6000819050602082019050919050565b6000819050602082019050919050565b6000819050602082019050919050565b600081519050919050565b600081519050919050565b600081519050919050565b600081519050919050565b6000602082019050919050565b6000602082019050919050565b6000602082019050919050565b600082825260208201905092915050565b600082825260208201905092915050565b600082825260208201905092915050565b600082825260208201905092915050565b600082825260208201905092915050565b6000611c5082611ceb565b9150611c5b83611ceb565b9250827fffffffffffffffffffffffffffffffffffffffffffffffffffffffffffffffff03821115611c9057611c8f611d9a565b5b828201905092915050565b6000611ca682611ccb565b9050919050565b6000611cb882611ccb565b9050919050565b60008115159050919050565b600073ffffffffffffffffffffffffffffffffffffffff82169050919050565b6000819050919050565b82818337600083830152505050565b60005b83811015611d22578082015181840152602081019050611d07565b83811115611d31576000848401525b50505050565b60006002820490506001821680611d4f57607f821691505b60208210811415611d6357611d62611dc9565b5b50919050565b611d7282611e6a565b810181811067ffffffffffffffff82111715611d9157611d90611e27565b5b80604052505050565b7f4e487b7100000000000000000000000000000000000000000000000000000000600052601160045260246000fd5b7f4e487b7100000000000000000000000000000000000000000000000000000000600052602260045260246000fd5b7f4e487b7100000000000000000000000000000000000000000000000000000000600052603260045260246000fd5b7f4e487b7100000000000000000000000000000000000000000000000000000000600052604160045260246000fd5b600080fd5b600080fd5b600080fd5b600080fd5b6000601f19601f8301169050919050565b7f54686520646f6e6174696f6e206861732066696e697368656400000000000000600082015250565b611ead81611c9b565b8114611eb857600080fd5b50565b611ec481611ceb565b8114611ecf57600080fd5b5056fea2646970667358221220d139144b207e7c4ecbf0658685b057521aeb1587541e00a2ddd7b3e995efa08d64736f6c63430008060033",
  "immutableReferences": {},
  "source": "pragma solidity ^0.8.0;\r\n\r\ncontract SaveChildren{\r\n\r\n    struct Campaign{\r\n        string name;\r\n        string description;\r\n        string email;\r\n        string imageUrl;\r\n        address payable owner;\r\n        uint256 timeCreated;\r\n        uint256 blockDeadline;\r\n        uint256 goal;\r\n        uint256 raised;\r\n        uint256 id;\r\n        bool isFinished;\r\n    }\r\n\r\n    struct Donation{\r\n        address payable from;\r\n        uint256 amount;\r\n    }\r\n\r\n    //----------------------------FIELDS----------------\r\n\r\n    address private owner = msg.sender;\r\n\r\n    Campaign[] public campaigns;\r\n\r\n    mapping(address => bool) public admins;\r\n\r\n    mapping(uint256 => string[]) public mails;\r\n\r\n    //map of all donors of a certain campaign\r\n    mapping(uint256 => Donation[]) public donors;\r\n\r\n\r\n    //----------------------------MODIFIERS----------------\r\n\r\n\r\n\r\n    //----------------------------METHODS----------------\r\n\r\n    fallback() external{\r\n        revert();\r\n    }\r\n\r\n    function createCampaign(string memory _name, string memory _description, address _owner, uint256  _blockDeadline, uint256  _goal, string memory _email, string memory _url) public returns(bool){\r\n\r\n        Campaign memory newCamp;\r\n        newCamp.name = _name;\r\n        newCamp.description = _description;\r\n        newCamp.owner = payable(_owner);\r\n        newCamp.timeCreated = block.timestamp;\r\n        newCamp.blockDeadline = _blockDeadline;\r\n        newCamp.goal = _goal;\r\n        newCamp.isFinished = false;\r\n        newCamp.email = _email;\r\n        newCamp.imageUrl = _url;\r\n        newCamp.id = campaigns.length;\r\n        campaigns.push(newCamp);\r\n\r\n\r\n\r\n        return true;\r\n    }\r\n    // payable funkcija - iz adrese u contract\r\n    // payable adresa - contract salje na adresu\r\n\r\n    function donate(uint256 id, string memory _email) external payable{\r\n\r\n        require(!campaigns[id].isFinished, \"The donation has finished\");\r\n\r\n        if(block.timestamp > campaigns[id].blockDeadline){\r\n            campaigns[id].isFinished = true;\r\n            emit CampaignFinished(id);\r\n            revert();\r\n        }\r\n\r\n        address payable donor = payable(msg.sender);\r\n\r\n        campaigns[id].owner.transfer(msg.value);\r\n        campaigns[id].raised+=msg.value;\r\n\r\n        Donation memory newDon;\r\n        newDon.from = donor;\r\n        newDon.amount = msg.value;\r\n\r\n        donors[id].push(newDon);\r\n        mails[id].push(_email);\r\n\r\n//        if(campaigns[id].raised > campaigns[id].goal){\r\n//            campaigns[id].isFinished = true;\r\n//            emit CampaignFinished(id);\r\n//        }\r\n\r\n        emit DonationEvent(donor, msg.value, id);\r\n    }\r\n\r\n    function getDonorsLength(uint256 id) public view returns(uint256){\r\n        return donors[id].length;\r\n    }\r\n\r\n    function getDonors(uint256 id) public view returns(Donation[] memory){\r\n        return donors[id];\r\n    }\r\n\r\n    function getCampaignsLength() public view returns(uint256){\r\n        return campaigns.length;\r\n    }\r\n\r\n    function getCampaigns() public view returns(Campaign[] memory){\r\n        return campaigns;\r\n    }\r\n    \r\n    function getMailsById(uint256 id) public view returns(string[] memory){\r\n        return mails[id];\r\n    }\r\n\r\n    //----------------------------EVENTS----------------\r\n    event DonationEvent(address payable from, uint256 amount, uint256 campId);\r\n\r\n    event CampaignFinished(uint256 campId);\r\n}",
  "sourcePath": "C:\\Users\\WIN 10\\Desktop\\SaveChildrenV2.0\\src\\contracts\\SaveChildren.sol",
  "compiler": {
    "name": "solc",
    "version": "0.8.6+commit.11564f7e.Emscripten.clang"
  },
  "schemaVersion": "3.4.2",
  "updatedAt": "2021-07-26T19:54:55.313Z",
  "networkType": "ethereum",
  "devdoc": {
    "kind": "dev",
    "methods": {},
    "version": 1
  },
  "userdoc": {
    "kind": "user",
    "methods": {},
    "version": 1
  }
}