{
  "contractName": "NFT",
  "abi": [
    {
      "inputs": [
        {
          "internalType": "string",
          "name": "_name",
          "type": "string"
        },
        {
          "internalType": "string",
          "name": "_symbol",
          "type": "string"
        }
      ],
      "stateMutability": "nonpayable",
      "type": "constructor"
    },
    {
      "anonymous": false,
      "inputs": [
        {
          "indexed": true,
          "internalType": "address",
          "name": "owner",
          "type": "address"
        },
        {
          "indexed": true,
          "internalType": "address",
          "name": "approved",
          "type": "address"
        },
        {
          "indexed": true,
          "internalType": "uint256",
          "name": "tokenId",
          "type": "uint256"
        }
      ],
      "name": "Approval",
      "type": "event"
    },
    {
      "anonymous": false,
      "inputs": [
        {
          "indexed": true,
          "internalType": "address",
          "name": "owner",
          "type": "address"
        },
        {
          "indexed": true,
          "internalType": "address",
          "name": "operator",
          "type": "address"
        },
        {
          "indexed": false,
          "internalType": "bool",
          "name": "approved",
          "type": "bool"
        }
      ],
      "name": "ApprovalForAll",
      "type": "event"
    },
    {
      "anonymous": false,
      "inputs": [
        {
          "indexed": true,
          "internalType": "address",
          "name": "from",
          "type": "address"
        },
        {
          "indexed": true,
          "internalType": "address",
          "name": "to",
          "type": "address"
        },
        {
          "indexed": true,
          "internalType": "uint256",
          "name": "tokenId",
          "type": "uint256"
        }
      ],
      "name": "Transfer",
      "type": "event"
    },
    {
      "inputs": [
        {
          "internalType": "address",
          "name": "to",
          "type": "address"
        },
        {
          "internalType": "uint256",
          "name": "tokenId",
          "type": "uint256"
        }
      ],
      "name": "approve",
      "outputs": [],
      "stateMutability": "nonpayable",
      "type": "function"
    },
    {
      "inputs": [
        {
          "internalType": "address",
          "name": "owner",
          "type": "address"
        }
      ],
      "name": "balanceOf",
      "outputs": [
        {
          "internalType": "uint256",
          "name": "",
          "type": "uint256"
        }
      ],
      "stateMutability": "view",
      "type": "function",
      "constant": true
    },
    {
      "inputs": [
        {
          "internalType": "uint256",
          "name": "tokenId",
          "type": "uint256"
        }
      ],
      "name": "getApproved",
      "outputs": [
        {
          "internalType": "address",
          "name": "",
          "type": "address"
        }
      ],
      "stateMutability": "view",
      "type": "function",
      "constant": true
    },
    {
      "inputs": [
        {
          "internalType": "address",
          "name": "owner",
          "type": "address"
        },
        {
          "internalType": "address",
          "name": "operator",
          "type": "address"
        }
      ],
      "name": "isApprovedForAll",
      "outputs": [
        {
          "internalType": "bool",
          "name": "",
          "type": "bool"
        }
      ],
      "stateMutability": "view",
      "type": "function",
      "constant": true
    },
    {
      "inputs": [],
      "name": "name",
      "outputs": [
        {
          "internalType": "string",
          "name": "",
          "type": "string"
        }
      ],
      "stateMutability": "view",
      "type": "function",
      "constant": true
    },
    {
      "inputs": [
        {
          "internalType": "uint256",
          "name": "tokenId",
          "type": "uint256"
        }
      ],
      "name": "ownerOf",
      "outputs": [
        {
          "internalType": "address",
          "name": "",
          "type": "address"
        }
      ],
      "stateMutability": "view",
      "type": "function",
      "constant": true
    },
    {
      "inputs": [
        {
          "internalType": "uint256",
          "name": "",
          "type": "uint256"
        }
      ],
      "name": "receipts",
      "outputs": [
        {
          "internalType": "string",
          "name": "",
          "type": "string"
        }
      ],
      "stateMutability": "view",
      "type": "function",
      "constant": true
    },
    {
      "inputs": [
        {
          "internalType": "address",
          "name": "from",
          "type": "address"
        },
        {
          "internalType": "address",
          "name": "to",
          "type": "address"
        },
        {
          "internalType": "uint256",
          "name": "tokenId",
          "type": "uint256"
        }
      ],
      "name": "safeTransferFrom",
      "outputs": [],
      "stateMutability": "nonpayable",
      "type": "function"
    },
    {
      "inputs": [
        {
          "internalType": "address",
          "name": "from",
          "type": "address"
        },
        {
          "internalType": "address",
          "name": "to",
          "type": "address"
        },
        {
          "internalType": "uint256",
          "name": "tokenId",
          "type": "uint256"
        },
        {
          "internalType": "bytes",
          "name": "_data",
          "type": "bytes"
        }
      ],
      "name": "safeTransferFrom",
      "outputs": [],
      "stateMutability": "nonpayable",
      "type": "function"
    },
    {
      "inputs": [
        {
          "internalType": "address",
          "name": "operator",
          "type": "address"
        },
        {
          "internalType": "bool",
          "name": "approved",
          "type": "bool"
        }
      ],
      "name": "setApprovalForAll",
      "outputs": [],
      "stateMutability": "nonpayable",
      "type": "function"
    },
    {
      "inputs": [
        {
          "internalType": "bytes4",
          "name": "interfaceId",
          "type": "bytes4"
        }
      ],
      "name": "supportsInterface",
      "outputs": [
        {
          "internalType": "bool",
          "name": "",
          "type": "bool"
        }
      ],
      "stateMutability": "view",
      "type": "function",
      "constant": true
    },
    {
      "inputs": [],
      "name": "symbol",
      "outputs": [
        {
          "internalType": "string",
          "name": "",
          "type": "string"
        }
      ],
      "stateMutability": "view",
      "type": "function",
      "constant": true
    },
    {
      "inputs": [
        {
          "internalType": "uint256",
          "name": "tokenId",
          "type": "uint256"
        }
      ],
      "name": "tokenURI",
      "outputs": [
        {
          "internalType": "string",
          "name": "",
          "type": "string"
        }
      ],
      "stateMutability": "view",
      "type": "function",
      "constant": true
    },
    {
      "inputs": [
        {
          "internalType": "address",
          "name": "from",
          "type": "address"
        },
        {
          "internalType": "address",
          "name": "to",
          "type": "address"
        },
        {
          "internalType": "uint256",
          "name": "tokenId",
          "type": "uint256"
        }
      ],
      "name": "transferFrom",
      "outputs": [],
      "stateMutability": "nonpayable",
      "type": "function"
    },
    {
      "inputs": [
        {
          "internalType": "string",
          "name": "_receipt",
          "type": "string"
        },
        {
          "internalType": "address",
          "name": "recipiant",
          "type": "address"
        }
      ],
      "name": "mint",
      "outputs": [],
      "stateMutability": "nonpayable",
      "type": "function"
    },
    {
      "inputs": [],
      "name": "print",
      "outputs": [
        {
          "internalType": "string[]",
          "name": "",
          "type": "string[]"
        }
      ],
      "stateMutability": "view",
      "type": "function",
      "constant": true
    }
  ],
  "bytecode": "0x60806040523480156200001157600080fd5b5060405162003097380380620030978339818101604052810190620000379190620001a3565b818181600090805190602001906200005192919062000075565b5080600190805190602001906200006a92919062000075565b5050505050620003ac565b8280546200008390620002bd565b90600052602060002090601f016020900481019282620000a75760008555620000f3565b82601f10620000c257805160ff1916838001178555620000f3565b82800160010185558215620000f3579182015b82811115620000f2578251825591602001919060010190620000d5565b5b50905062000102919062000106565b5090565b5b808211156200012157600081600090555060010162000107565b5090565b60006200013c620001368462000251565b62000228565b9050828152602081018484840111156200015b576200015a6200038c565b5b6200016884828562000287565b509392505050565b600082601f83011262000188576200018762000387565b5b81516200019a84826020860162000125565b91505092915050565b60008060408385031215620001bd57620001bc62000396565b5b600083015167ffffffffffffffff811115620001de57620001dd62000391565b5b620001ec8582860162000170565b925050602083015167ffffffffffffffff81111562000210576200020f62000391565b5b6200021e8582860162000170565b9150509250929050565b60006200023462000247565b9050620002428282620002f3565b919050565b6000604051905090565b600067ffffffffffffffff8211156200026f576200026e62000358565b5b6200027a826200039b565b9050602081019050919050565b60005b83811015620002a75780820151818401526020810190506200028a565b83811115620002b7576000848401525b50505050565b60006002820490506001821680620002d657607f821691505b60208210811415620002ed57620002ec62000329565b5b50919050565b620002fe826200039b565b810181811067ffffffffffffffff8211171562000320576200031f62000358565b5b80604052505050565b7f4e487b7100000000000000000000000000000000000000000000000000000000600052602260045260246000fd5b7f4e487b7100000000000000000000000000000000000000000000000000000000600052604160045260246000fd5b600080fd5b600080fd5b600080fd5b600080fd5b6000601f19601f8301169050919050565b612cdb80620003bc6000396000f3fe608060405234801561001057600080fd5b50600436106101005760003560e01c806342842e0e11610097578063a22cb46511610066578063a22cb465146102bf578063b88d4fde146102db578063c87b56dd146102f7578063e985e9c51461032757610100565b806342842e0e146102255780636352211e1461024157806370a082311461027157806395d89b41146102a157610100565b80630f7ee1ec116100d35780630f7ee1ec1461019f57806313bdfacd146101cf5780631c351a9d146101ed57806323b872dd1461020957610100565b806301ffc9a71461010557806306fdde0314610135578063081812fc14610153578063095ea7b314610183575b600080fd5b61011f600480360381019061011a9190611c50565b610357565b60405161012c9190612196565b60405180910390f35b61013d610439565b60405161014a91906121b1565b60405180910390f35b61016d60048036038101906101689190611d06565b6104cb565b60405161017a919061210d565b60405180910390f35b61019d60048036038101906101989190611c10565b610550565b005b6101b960048036038101906101b49190611d06565b610668565b6040516101c691906121b1565b60405180910390f35b6101d7610714565b6040516101e49190612174565b60405180910390f35b61020760048036038101906102029190611caa565b6107ed565b005b610223600480360381019061021e9190611afa565b6108e5565b005b61023f600480360381019061023a9190611afa565b610945565b005b61025b60048036038101906102569190611d06565b610965565b604051610268919061210d565b60405180910390f35b61028b60048036038101906102869190611a8d565b610a17565b60405161029891906123b3565b60405180910390f35b6102a9610acf565b6040516102b691906121b1565b60405180910390f35b6102d960048036038101906102d49190611bd0565b610b61565b005b6102f560048036038101906102f09190611b4d565b610ce2565b005b610311600480360381019061030c9190611d06565b610d44565b60405161031e91906121b1565b60405180910390f35b610341600480360381019061033c9190611aba565b610deb565b60405161034e9190612196565b60405180910390f35b60007f80ac58cd000000000000000000000000000000000000000000000000000000007bffffffffffffffffffffffffffffffffffffffffffffffffffffffff1916827bffffffffffffffffffffffffffffffffffffffffffffffffffffffff1916148061042257507f5b5e139f000000000000000000000000000000000000000000000000000000007bffffffffffffffffffffffffffffffffffffffffffffffffffffffff1916827bffffffffffffffffffffffffffffffffffffffffffffffffffffffff1916145b80610432575061043182610e7f565b5b9050919050565b60606000805461044890612653565b80601f016020809104026020016040519081016040528092919081815260200182805461047490612653565b80156104c15780601f10610496576101008083540402835291602001916104c1565b820191906000526020600020905b8154815290600101906020018083116104a457829003601f168201915b5050505050905090565b60006104d682610ee9565b610515576040517f08c379a000000000000000000000000000000000000000000000000000000000815260040161050c906122f3565b60405180910390fd5b6004600083815260200190815260200160002060009054906101000a900473ffffffffffffffffffffffffffffffffffffffff169050919050565b600061055b82610965565b90508073ffffffffffffffffffffffffffffffffffffffff168373ffffffffffffffffffffffffffffffffffffffff1614156105cc576040517f08c379a00000000000000000000000000000000000000000000000000000000081526004016105c390612353565b60405180910390fd5b8073ffffffffffffffffffffffffffffffffffffffff166105eb610f55565b73ffffffffffffffffffffffffffffffffffffffff16148061061a575061061981610614610f55565b610deb565b5b610659576040517f08c379a000000000000000000000000000000000000000000000000000000000815260040161065090612273565b60405180910390fd5b6106638383610f5d565b505050565b6006818154811061067857600080fd5b90600052602060002001600091509050805461069390612653565b80601f01602080910402602001604051908101604052809291908181526020018280546106bf90612653565b801561070c5780601f106106e15761010080835404028352916020019161070c565b820191906000526020600020905b8154815290600101906020018083116106ef57829003601f168201915b505050505081565b60606006805480602002602001604051908101604052809291908181526020016000905b828210156107e457838290600052602060002001805461075790612653565b80601f016020809104026020016040519081016040528092919081815260200182805461078390612653565b80156107d05780601f106107a5576101008083540402835291602001916107d0565b820191906000526020600020905b8154815290600101906020018083116107b357829003601f168201915b505050505081526020019060010190610738565b50505050905090565b6007826040516107fd91906120d2565b908152602001604051809103902060009054906101000a900460ff1615610859576040517f08c379a000000000000000000000000000000000000000000000000000000000815260040161085090612373565b60405180910390fd5b6006829080600181540180825580915050600190039060005260206000200160009091909190915090805190602001906108949291906118a1565b50600060068054905090506108a98282611016565b60016007846040516108bb91906120d2565b908152602001604051809103902060006101000a81548160ff021916908315150217905550505050565b6108f66108f0610f55565b826111e4565b610935576040517f08c379a000000000000000000000000000000000000000000000000000000000815260040161092c90612393565b60405180910390fd5b6109408383836112c2565b505050565b61096083838360405180602001604052806000815250610ce2565b505050565b6000806002600084815260200190815260200160002060009054906101000a900473ffffffffffffffffffffffffffffffffffffffff169050600073ffffffffffffffffffffffffffffffffffffffff168173ffffffffffffffffffffffffffffffffffffffff161415610a0e576040517f08c379a0000000000000000000000000000000000000000000000000000000008152600401610a05906122b3565b60405180910390fd5b80915050919050565b60008073ffffffffffffffffffffffffffffffffffffffff168273ffffffffffffffffffffffffffffffffffffffff161415610a88576040517f08c379a0000000000000000000000000000000000000000000000000000000008152600401610a7f90612293565b60405180910390fd5b600360008373ffffffffffffffffffffffffffffffffffffffff1673ffffffffffffffffffffffffffffffffffffffff168152602001908152602001600020549050919050565b606060018054610ade90612653565b80601f0160208091040260200160405190810160405280929190818152602001828054610b0a90612653565b8015610b575780601f10610b2c57610100808354040283529160200191610b57565b820191906000526020600020905b815481529060010190602001808311610b3a57829003601f168201915b5050505050905090565b610b69610f55565b73ffffffffffffffffffffffffffffffffffffffff168273ffffffffffffffffffffffffffffffffffffffff161415610bd7576040517f08c379a0000000000000000000000000000000000000000000000000000000008152600401610bce90612233565b60405180910390fd5b8060056000610be4610f55565b73ffffffffffffffffffffffffffffffffffffffff1673ffffffffffffffffffffffffffffffffffffffff16815260200190815260200160002060008473ffffffffffffffffffffffffffffffffffffffff1673ffffffffffffffffffffffffffffffffffffffff16815260200190815260200160002060006101000a81548160ff0219169083151502179055508173ffffffffffffffffffffffffffffffffffffffff16610c91610f55565b73ffffffffffffffffffffffffffffffffffffffff167f17307eab39ab6107e8899845ad3d59bd9653f200f220920489ca2b5937696c3183604051610cd69190612196565b60405180910390a35050565b610cf3610ced610f55565b836111e4565b610d32576040517f08c379a0000000000000000000000000000000000000000000000000000000008152600401610d2990612393565b60405180910390fd5b610d3e8484848461151e565b50505050565b6060610d4f82610ee9565b610d8e576040517f08c379a0000000000000000000000000000000000000000000000000000000008152600401610d8590612333565b60405180910390fd5b6000610d9861157a565b90506000815111610db85760405180602001604052806000815250610de3565b80610dc284611591565b604051602001610dd39291906120e9565b6040516020818303038152906040525b915050919050565b6000600560008473ffffffffffffffffffffffffffffffffffffffff1673ffffffffffffffffffffffffffffffffffffffff16815260200190815260200160002060008373ffffffffffffffffffffffffffffffffffffffff1673ffffffffffffffffffffffffffffffffffffffff16815260200190815260200160002060009054906101000a900460ff16905092915050565b60007f01ffc9a7000000000000000000000000000000000000000000000000000000007bffffffffffffffffffffffffffffffffffffffffffffffffffffffff1916827bffffffffffffffffffffffffffffffffffffffffffffffffffffffff1916149050919050565b60008073ffffffffffffffffffffffffffffffffffffffff166002600084815260200190815260200160002060009054906101000a900473ffffffffffffffffffffffffffffffffffffffff1673ffffffffffffffffffffffffffffffffffffffff1614159050919050565b600033905090565b816004600083815260200190815260200160002060006101000a81548173ffffffffffffffffffffffffffffffffffffffff021916908373ffffffffffffffffffffffffffffffffffffffff160217905550808273ffffffffffffffffffffffffffffffffffffffff16610fd083610965565b73ffffffffffffffffffffffffffffffffffffffff167f8c5be1e5ebec7d5bd14f71427d1e84f3dd0314c0f7b2291e5b200ac8c7c3b92560405160405180910390a45050565b600073ffffffffffffffffffffffffffffffffffffffff168273ffffffffffffffffffffffffffffffffffffffff161415611086576040517f08c379a000000000000000000000000000000000000000000000000000000000815260040161107d906122d3565b60405180910390fd5b61108f81610ee9565b156110cf576040517f08c379a00000000000000000000000000000000000000000000000000000000081526004016110c6906121f3565b60405180910390fd5b6110db600083836116f2565b6001600360008473ffffffffffffffffffffffffffffffffffffffff1673ffffffffffffffffffffffffffffffffffffffff168152602001908152602001600020600082825461112b91906124e2565b92505081905550816002600083815260200190815260200160002060006101000a81548173ffffffffffffffffffffffffffffffffffffffff021916908373ffffffffffffffffffffffffffffffffffffffff160217905550808273ffffffffffffffffffffffffffffffffffffffff16600073ffffffffffffffffffffffffffffffffffffffff167fddf252ad1be2c89b69c2b068fc378daa952ba7f163c4a11628f55a4df523b3ef60405160405180910390a45050565b60006111ef82610ee9565b61122e576040517f08c379a000000000000000000000000000000000000000000000000000000000815260040161122590612253565b60405180910390fd5b600061123983610965565b90508073ffffffffffffffffffffffffffffffffffffffff168473ffffffffffffffffffffffffffffffffffffffff1614806112a857508373ffffffffffffffffffffffffffffffffffffffff16611290846104cb565b73ffffffffffffffffffffffffffffffffffffffff16145b806112b957506112b88185610deb565b5b91505092915050565b8273ffffffffffffffffffffffffffffffffffffffff166112e282610965565b73ffffffffffffffffffffffffffffffffffffffff1614611338576040517f08c379a000000000000000000000000000000000000000000000000000000000815260040161132f90612313565b60405180910390fd5b600073ffffffffffffffffffffffffffffffffffffffff168273ffffffffffffffffffffffffffffffffffffffff1614156113a8576040517f08c379a000000000000000000000000000000000000000000000000000000000815260040161139f90612213565b60405180910390fd5b6113b38383836116f2565b6113be600082610f5d565b6001600360008573ffffffffffffffffffffffffffffffffffffffff1673ffffffffffffffffffffffffffffffffffffffff168152602001908152602001600020600082825461140e9190612569565b925050819055506001600360008473ffffffffffffffffffffffffffffffffffffffff1673ffffffffffffffffffffffffffffffffffffffff168152602001908152602001600020600082825461146591906124e2565b92505081905550816002600083815260200190815260200160002060006101000a81548173ffffffffffffffffffffffffffffffffffffffff021916908373ffffffffffffffffffffffffffffffffffffffff160217905550808273ffffffffffffffffffffffffffffffffffffffff168473ffffffffffffffffffffffffffffffffffffffff167fddf252ad1be2c89b69c2b068fc378daa952ba7f163c4a11628f55a4df523b3ef60405160405180910390a4505050565b6115298484846112c2565b611535848484846116f7565b611574576040517f08c379a000000000000000000000000000000000000000000000000000000000815260040161156b906121d3565b60405180910390fd5b50505050565b606060405180602001604052806000815250905090565b606060008214156115d9576040518060400160405280600181526020017f300000000000000000000000000000000000000000000000000000000000000081525090506116ed565b600082905060005b6000821461160b5780806115f4906126b6565b915050600a826116049190612538565b91506115e1565b60008167ffffffffffffffff811115611627576116266127ec565b5b6040519080825280601f01601f1916602001820160405280156116595781602001600182028036833780820191505090505b5090505b600085146116e6576001826116729190612569565b9150600a8561168191906126ff565b603061168d91906124e2565b60f81b8183815181106116a3576116a26127bd565b5b60200101907effffffffffffffffffffffffffffffffffffffffffffffffffffffffffffff1916908160001a905350600a856116df9190612538565b945061165d565b8093505050505b919050565b505050565b60006117188473ffffffffffffffffffffffffffffffffffffffff1661188e565b15611881578373ffffffffffffffffffffffffffffffffffffffff1663150b7a02611741610f55565b8786866040518563ffffffff1660e01b81526004016117639493929190612128565b602060405180830381600087803b15801561177d57600080fd5b505af19250505080156117ae57506040513d601f19601f820116820180604052508101906117ab9190611c7d565b60015b611831573d80600081146117de576040519150601f19603f3d011682016040523d82523d6000602084013e6117e3565b606091505b50600081511415611829576040517f08c379a0000000000000000000000000000000000000000000000000000000008152600401611820906121d3565b60405180910390fd5b805181602001fd5b63150b7a0260e01b7bffffffffffffffffffffffffffffffffffffffffffffffffffffffff1916817bffffffffffffffffffffffffffffffffffffffffffffffffffffffff191614915050611886565b600190505b949350505050565b600080823b905060008111915050919050565b8280546118ad90612653565b90600052602060002090601f0160209004810192826118cf5760008555611916565b82601f106118e857805160ff1916838001178555611916565b82800160010185558215611916579182015b828111156119155782518255916020019190600101906118fa565b5b5090506119239190611927565b5090565b5b80821115611940576000816000905550600101611928565b5090565b6000611957611952846123f3565b6123ce565b90508281526020810184848401111561197357611972612820565b5b61197e848285612611565b509392505050565b600061199961199484612424565b6123ce565b9050828152602081018484840111156119b5576119b4612820565b5b6119c0848285612611565b509392505050565b6000813590506119d781612c49565b92915050565b6000813590506119ec81612c60565b92915050565b600081359050611a0181612c77565b92915050565b600081519050611a1681612c77565b92915050565b600082601f830112611a3157611a3061281b565b5b8135611a41848260208601611944565b91505092915050565b600082601f830112611a5f57611a5e61281b565b5b8135611a6f848260208601611986565b91505092915050565b600081359050611a8781612c8e565b92915050565b600060208284031215611aa357611aa261282a565b5b6000611ab1848285016119c8565b91505092915050565b60008060408385031215611ad157611ad061282a565b5b6000611adf858286016119c8565b9250506020611af0858286016119c8565b9150509250929050565b600080600060608486031215611b1357611b1261282a565b5b6000611b21868287016119c8565b9350506020611b32868287016119c8565b9250506040611b4386828701611a78565b9150509250925092565b60008060008060808587031215611b6757611b6661282a565b5b6000611b75878288016119c8565b9450506020611b86878288016119c8565b9350506040611b9787828801611a78565b925050606085013567ffffffffffffffff811115611bb857611bb7612825565b5b611bc487828801611a1c565b91505092959194509250565b60008060408385031215611be757611be661282a565b5b6000611bf5858286016119c8565b9250506020611c06858286016119dd565b9150509250929050565b60008060408385031215611c2757611c2661282a565b5b6000611c35858286016119c8565b9250506020611c4685828601611a78565b9150509250929050565b600060208284031215611c6657611c6561282a565b5b6000611c74848285016119f2565b91505092915050565b600060208284031215611c9357611c9261282a565b5b6000611ca184828501611a07565b91505092915050565b60008060408385031215611cc157611cc061282a565b5b600083013567ffffffffffffffff811115611cdf57611cde612825565b5b611ceb85828601611a4a565b9250506020611cfc858286016119c8565b9150509250929050565b600060208284031215611d1c57611d1b61282a565b5b6000611d2a84828501611a78565b91505092915050565b6000611d3f8383611e13565b905092915050565b611d508161259d565b82525050565b6000611d6182612465565b611d6b8185612493565b935083602082028501611d7d85612455565b8060005b85811015611db95784840389528151611d9a8582611d33565b9450611da583612486565b925060208a01995050600181019050611d81565b50829750879550505050505092915050565b611dd4816125af565b82525050565b6000611de582612470565b611def81856124a4565b9350611dff818560208601612620565b611e088161282f565b840191505092915050565b6000611e1e8261247b565b611e2881856124b5565b9350611e38818560208601612620565b611e418161282f565b840191505092915050565b6000611e578261247b565b611e6181856124c6565b9350611e71818560208601612620565b611e7a8161282f565b840191505092915050565b6000611e908261247b565b611e9a81856124d7565b9350611eaa818560208601612620565b80840191505092915050565b6000611ec36032836124c6565b9150611ece82612840565b604082019050919050565b6000611ee6601c836124c6565b9150611ef18261288f565b602082019050919050565b6000611f096024836124c6565b9150611f14826128b8565b604082019050919050565b6000611f2c6019836124c6565b9150611f3782612907565b602082019050919050565b6000611f4f602c836124c6565b9150611f5a82612930565b604082019050919050565b6000611f726038836124c6565b9150611f7d8261297f565b604082019050919050565b6000611f95602a836124c6565b9150611fa0826129ce565b604082019050919050565b6000611fb86029836124c6565b9150611fc382612a1d565b604082019050919050565b6000611fdb6020836124c6565b9150611fe682612a6c565b602082019050919050565b6000611ffe602c836124c6565b915061200982612a95565b604082019050919050565b60006120216029836124c6565b915061202c82612ae4565b604082019050919050565b6000612044602f836124c6565b915061204f82612b33565b604082019050919050565b60006120676021836124c6565b915061207282612b82565b604082019050919050565b600061208a6012836124c6565b915061209582612bd1565b602082019050919050565b60006120ad6031836124c6565b91506120b882612bfa565b604082019050919050565b6120cc81612607565b82525050565b60006120de8284611e85565b915081905092915050565b60006120f58285611e85565b91506121018284611e85565b91508190509392505050565b60006020820190506121226000830184611d47565b92915050565b600060808201905061213d6000830187611d47565b61214a6020830186611d47565b61215760408301856120c3565b81810360608301526121698184611dda565b905095945050505050565b6000602082019050818103600083015261218e8184611d56565b905092915050565b60006020820190506121ab6000830184611dcb565b92915050565b600060208201905081810360008301526121cb8184611e4c565b905092915050565b600060208201905081810360008301526121ec81611eb6565b9050919050565b6000602082019050818103600083015261220c81611ed9565b9050919050565b6000602082019050818103600083015261222c81611efc565b9050919050565b6000602082019050818103600083015261224c81611f1f565b9050919050565b6000602082019050818103600083015261226c81611f42565b9050919050565b6000602082019050818103600083015261228c81611f65565b9050919050565b600060208201905081810360008301526122ac81611f88565b9050919050565b600060208201905081810360008301526122cc81611fab565b9050919050565b600060208201905081810360008301526122ec81611fce565b9050919050565b6000602082019050818103600083015261230c81611ff1565b9050919050565b6000602082019050818103600083015261232c81612014565b9050919050565b6000602082019050818103600083015261234c81612037565b9050919050565b6000602082019050818103600083015261236c8161205a565b9050919050565b6000602082019050818103600083015261238c8161207d565b9050919050565b600060208201905081810360008301526123ac816120a0565b9050919050565b60006020820190506123c860008301846120c3565b92915050565b60006123d86123e9565b90506123e48282612685565b919050565b6000604051905090565b600067ffffffffffffffff82111561240e5761240d6127ec565b5b6124178261282f565b9050602081019050919050565b600067ffffffffffffffff82111561243f5761243e6127ec565b5b6124488261282f565b9050602081019050919050565b6000819050602082019050919050565b600081519050919050565b600081519050919050565b600081519050919050565b6000602082019050919050565b600082825260208201905092915050565b600082825260208201905092915050565b600082825260208201905092915050565b600082825260208201905092915050565b600081905092915050565b60006124ed82612607565b91506124f883612607565b9250827fffffffffffffffffffffffffffffffffffffffffffffffffffffffffffffffff0382111561252d5761252c612730565b5b828201905092915050565b600061254382612607565b915061254e83612607565b92508261255e5761255d61275f565b5b828204905092915050565b600061257482612607565b915061257f83612607565b92508282101561259257612591612730565b5b828203905092915050565b60006125a8826125e7565b9050919050565b60008115159050919050565b60007fffffffff0000000000000000000000000000000000000000000000000000000082169050919050565b600073ffffffffffffffffffffffffffffffffffffffff82169050919050565b6000819050919050565b82818337600083830152505050565b60005b8381101561263e578082015181840152602081019050612623565b8381111561264d576000848401525b50505050565b6000600282049050600182168061266b57607f821691505b6020821081141561267f5761267e61278e565b5b50919050565b61268e8261282f565b810181811067ffffffffffffffff821117156126ad576126ac6127ec565b5b80604052505050565b60006126c182612607565b91507fffffffffffffffffffffffffffffffffffffffffffffffffffffffffffffffff8214156126f4576126f3612730565b5b600182019050919050565b600061270a82612607565b915061271583612607565b9250826127255761272461275f565b5b828206905092915050565b7f4e487b7100000000000000000000000000000000000000000000000000000000600052601160045260246000fd5b7f4e487b7100000000000000000000000000000000000000000000000000000000600052601260045260246000fd5b7f4e487b7100000000000000000000000000000000000000000000000000000000600052602260045260246000fd5b7f4e487b7100000000000000000000000000000000000000000000000000000000600052603260045260246000fd5b7f4e487b7100000000000000000000000000000000000000000000000000000000600052604160045260246000fd5b600080fd5b600080fd5b600080fd5b600080fd5b6000601f19601f8301169050919050565b7f4552433732313a207472616e7366657220746f206e6f6e20455243373231526560008201527f63656976657220696d706c656d656e7465720000000000000000000000000000602082015250565b7f4552433732313a20746f6b656e20616c7265616479206d696e74656400000000600082015250565b7f4552433732313a207472616e7366657220746f20746865207a65726f2061646460008201527f7265737300000000000000000000000000000000000000000000000000000000602082015250565b7f4552433732313a20617070726f766520746f2063616c6c657200000000000000600082015250565b7f4552433732313a206f70657261746f7220717565727920666f72206e6f6e657860008201527f697374656e7420746f6b656e0000000000000000000000000000000000000000602082015250565b7f4552433732313a20617070726f76652063616c6c6572206973206e6f74206f7760008201527f6e6572206e6f7220617070726f76656420666f7220616c6c0000000000000000602082015250565b7f4552433732313a2062616c616e636520717565727920666f7220746865207a6560008201527f726f206164647265737300000000000000000000000000000000000000000000602082015250565b7f4552433732313a206f776e657220717565727920666f72206e6f6e657869737460008201527f656e7420746f6b656e0000000000000000000000000000000000000000000000602082015250565b7f4552433732313a206d696e7420746f20746865207a65726f2061646472657373600082015250565b7f4552433732313a20617070726f76656420717565727920666f72206e6f6e657860008201527f697374656e7420746f6b656e0000000000000000000000000000000000000000602082015250565b7f4552433732313a207472616e73666572206f6620746f6b656e2074686174206960008201527f73206e6f74206f776e0000000000000000000000000000000000000000000000602082015250565b7f4552433732314d657461646174613a2055524920717565727920666f72206e6f60008201527f6e6578697374656e7420746f6b656e0000000000000000000000000000000000602082015250565b7f4552433732313a20617070726f76616c20746f2063757272656e74206f776e6560008201527f7200000000000000000000000000000000000000000000000000000000000000602082015250565b7f4e465420616c7265616479206578697374730000000000000000000000000000600082015250565b7f4552433732313a207472616e736665722063616c6c6572206973206e6f74206f60008201527f776e6572206e6f7220617070726f766564000000000000000000000000000000602082015250565b612c528161259d565b8114612c5d57600080fd5b50565b612c69816125af565b8114612c7457600080fd5b50565b612c80816125bb565b8114612c8b57600080fd5b50565b612c9781612607565b8114612ca257600080fd5b5056fea264697066735822122052c66fb4c9f89f8366f02a403d304deb9803fa7a133845980840ccfc440b701464736f6c63430008060033",
  "immutableReferences": {},
  "source": "pragma solidity ^0.8.0;\r\n\r\nimport \"@openzeppelin/contracts/token/ERC721/ERC721.sol\";\r\n\r\ncontract NFT is ERC721{\r\n\r\n    string[] public receipts;\r\n\r\n    mapping(string => bool) receiptExists;\r\n\r\n    constructor(string memory _name, string memory _symbol) ERC721(_name, _symbol) {}\r\n\r\n    function mint(string memory _receipt, address recipiant) public{\r\n        require(!receiptExists[_receipt], \"NFT already exists\");\r\n\r\n        receipts.push(_receipt);\r\n        //krece od 1\r\n        uint _id = receipts.length;\r\n        _mint(recipiant, _id);\r\n        receiptExists[_receipt] = true;\r\n    }\r\n\r\n    function print() public view returns(string[] memory){\r\n        return receipts;\r\n    }\r\n}\r\n\r\n",
  "sourcePath": "C:/Users/Luka/Desktop/SaveChildrenV2.0/client/src/contracts/NFT.sol",
  "compiler": {
    "name": "solc",
    "version": "0.8.6+commit.11564f7e.Emscripten.clang"
  },
  "schemaVersion": "3.4.1",
  "updatedAt": "2021-08-10T01:59:15.827Z",
  "networkType": "ethereum",
  "devdoc": {
    "kind": "dev",
    "methods": {
      "approve(address,uint256)": {
        "details": "See {IERC721-approve}."
      },
      "balanceOf(address)": {
        "details": "See {IERC721-balanceOf}."
      },
      "getApproved(uint256)": {
        "details": "See {IERC721-getApproved}."
      },
      "isApprovedForAll(address,address)": {
        "details": "See {IERC721-isApprovedForAll}."
      },
      "name()": {
        "details": "See {IERC721Metadata-name}."
      },
      "ownerOf(uint256)": {
        "details": "See {IERC721-ownerOf}."
      },
      "safeTransferFrom(address,address,uint256)": {
        "details": "See {IERC721-safeTransferFrom}."
      },
      "safeTransferFrom(address,address,uint256,bytes)": {
        "details": "See {IERC721-safeTransferFrom}."
      },
      "setApprovalForAll(address,bool)": {
        "details": "See {IERC721-setApprovalForAll}."
      },
      "supportsInterface(bytes4)": {
        "details": "See {IERC165-supportsInterface}."
      },
      "symbol()": {
        "details": "See {IERC721Metadata-symbol}."
      },
      "tokenURI(uint256)": {
        "details": "See {IERC721Metadata-tokenURI}."
      },
      "transferFrom(address,address,uint256)": {
        "details": "See {IERC721-transferFrom}."
      }
    },
    "version": 1
  },
  "userdoc": {
    "kind": "user",
    "methods": {},
    "version": 1
  }
}