{
  "contractName": "SaveChildren",
  "abi": [
    {
      "anonymous": false,
      "inputs": [
        {
          "indexed": false,
          "internalType": "uint256",
          "name": "campId",
          "type": "uint256"
        }
      ],
      "name": "CampaignFinished",
      "type": "event"
    },
    {
      "anonymous": false,
      "inputs": [
        {
          "indexed": false,
          "internalType": "address payable",
          "name": "from",
          "type": "address"
        },
        {
          "indexed": false,
          "internalType": "uint256",
          "name": "amount",
          "type": "uint256"
        },
        {
          "indexed": false,
          "internalType": "uint256",
          "name": "campId",
          "type": "uint256"
        }
      ],
      "name": "DonationEvent",
      "type": "event"
    },
    {
      "stateMutability": "nonpayable",
      "type": "fallback"
    },
    {
      "inputs": [
        {
          "internalType": "address",
          "name": "",
          "type": "address"
        }
      ],
      "name": "admins",
      "outputs": [
        {
          "internalType": "bool",
          "name": "",
          "type": "bool"
        }
      ],
      "stateMutability": "view",
      "type": "function",
      "constant": true
    },
    {
      "inputs": [
        {
          "internalType": "uint256",
          "name": "",
          "type": "uint256"
        }
      ],
      "name": "campaigns",
      "outputs": [
        {
          "internalType": "string",
          "name": "name",
          "type": "string"
        },
        {
          "internalType": "string",
          "name": "description",
          "type": "string"
        },
        {
          "internalType": "string",
          "name": "email",
          "type": "string"
        },
        {
          "internalType": "string",
          "name": "imageUrl",
          "type": "string"
        },
        {
          "internalType": "address payable",
          "name": "owner",
          "type": "address"
        },
        {
          "internalType": "uint256",
          "name": "timeCreated",
          "type": "uint256"
        },
        {
          "internalType": "uint256",
          "name": "blockDeadline",
          "type": "uint256"
        },
        {
          "internalType": "uint256",
          "name": "goal",
          "type": "uint256"
        },
        {
          "internalType": "uint256",
          "name": "raised",
          "type": "uint256"
        },
        {
          "internalType": "uint256",
          "name": "id",
          "type": "uint256"
        },
        {
          "internalType": "bool",
          "name": "isFinished",
          "type": "bool"
        }
      ],
      "stateMutability": "view",
      "type": "function",
      "constant": true
    },
    {
      "inputs": [
        {
          "internalType": "uint256",
          "name": "",
          "type": "uint256"
        },
        {
          "internalType": "uint256",
          "name": "",
          "type": "uint256"
        }
      ],
      "name": "donors",
      "outputs": [
        {
          "internalType": "address payable",
          "name": "from",
          "type": "address"
        },
        {
          "internalType": "uint256",
          "name": "amount",
          "type": "uint256"
        }
      ],
      "stateMutability": "view",
      "type": "function",
      "constant": true
    },
    {
      "inputs": [
        {
          "internalType": "uint256",
          "name": "",
          "type": "uint256"
        },
        {
          "internalType": "uint256",
          "name": "",
          "type": "uint256"
        }
      ],
      "name": "mails",
      "outputs": [
        {
          "internalType": "string",
          "name": "",
          "type": "string"
        }
      ],
      "stateMutability": "view",
      "type": "function",
      "constant": true
    },
    {
      "inputs": [
        {
          "internalType": "string",
          "name": "_name",
          "type": "string"
        },
        {
          "internalType": "string",
          "name": "_description",
          "type": "string"
        },
        {
          "internalType": "address",
          "name": "_owner",
          "type": "address"
        },
        {
          "internalType": "uint256",
          "name": "_blockDeadline",
          "type": "uint256"
        },
        {
          "internalType": "uint256",
          "name": "_goal",
          "type": "uint256"
        },
        {
          "internalType": "string",
          "name": "_email",
          "type": "string"
        },
        {
          "internalType": "string",
          "name": "_url",
          "type": "string"
        }
      ],
      "name": "createCampaign",
      "outputs": [
        {
          "internalType": "bool",
          "name": "",
          "type": "bool"
        }
      ],
      "stateMutability": "nonpayable",
      "type": "function"
    },
    {
      "inputs": [
        {
          "internalType": "uint256",
          "name": "id",
          "type": "uint256"
        },
        {
          "internalType": "string",
          "name": "_email",
          "type": "string"
        }
      ],
      "name": "donate",
      "outputs": [],
      "stateMutability": "payable",
      "type": "function",
      "payable": true
    },
    {
      "inputs": [
        {
          "internalType": "uint256",
          "name": "id",
          "type": "uint256"
        }
      ],
      "name": "getDonorsLength",
      "outputs": [
        {
          "internalType": "uint256",
          "name": "",
          "type": "uint256"
        }
      ],
      "stateMutability": "view",
      "type": "function",
      "constant": true
    },
    {
      "inputs": [
        {
          "internalType": "uint256",
          "name": "id",
          "type": "uint256"
        }
      ],
      "name": "getDonors",
      "outputs": [
        {
          "components": [
            {
              "internalType": "address payable",
              "name": "from",
              "type": "address"
            },
            {
              "internalType": "uint256",
              "name": "amount",
              "type": "uint256"
            }
          ],
          "internalType": "struct SaveChildren.Donation[]",
          "name": "",
          "type": "tuple[]"
        }
      ],
      "stateMutability": "view",
      "type": "function",
      "constant": true
    },
    {
      "inputs": [],
      "name": "getCampaignsLength",
      "outputs": [
        {
          "internalType": "uint256",
          "name": "",
          "type": "uint256"
        }
      ],
      "stateMutability": "view",
      "type": "function",
      "constant": true
    },
    {
      "inputs": [],
      "name": "getCampaigns",
      "outputs": [
        {
          "components": [
            {
              "internalType": "string",
              "name": "name",
              "type": "string"
            },
            {
              "internalType": "string",
              "name": "description",
              "type": "string"
            },
            {
              "internalType": "string",
              "name": "email",
              "type": "string"
            },
            {
              "internalType": "string",
              "name": "imageUrl",
              "type": "string"
            },
            {
              "internalType": "address payable",
              "name": "owner",
              "type": "address"
            },
            {
              "internalType": "uint256",
              "name": "timeCreated",
              "type": "uint256"
            },
            {
              "internalType": "uint256",
              "name": "blockDeadline",
              "type": "uint256"
            },
            {
              "internalType": "uint256",
              "name": "goal",
              "type": "uint256"
            },
            {
              "internalType": "uint256",
              "name": "raised",
              "type": "uint256"
            },
            {
              "internalType": "uint256",
              "name": "id",
              "type": "uint256"
            },
            {
              "internalType": "bool",
              "name": "isFinished",
              "type": "bool"
            }
          ],
          "internalType": "struct SaveChildren.Campaign[]",
          "name": "",
          "type": "tuple[]"
        }
      ],
      "stateMutability": "view",
      "type": "function",
      "constant": true
    },
    {
      "inputs": [
        {
          "internalType": "uint256",
          "name": "id",
          "type": "uint256"
        }
      ],
      "name": "getMailsById",
      "outputs": [
        {
          "internalType": "string[]",
          "name": "",
          "type": "string[]"
        }
      ],
      "stateMutability": "view",
      "type": "function",
      "constant": true
    }
  ],
  "bytecode": "0x6080604052336000806101000a81548173ffffffffffffffffffffffffffffffffffffffff021916908373ffffffffffffffffffffffffffffffffffffffff16021790555034801561005057600080fd5b50611fce806100606000396000f3fe6080604052600436106100a05760003560e01c8063429b62e511610064578063429b62e5146101ee578063790ec51d1461022b57806383bd62dd146102685780638d59d1f1146102a6578063a6b03633146102c2578063fb5474ae146102ed576100a1565b8063066e6503146100b3578063131666c3146100f0578063141961bc1461012d5780632951651114610174578063429831e7146101b1576100a1565b5b3480156100ad57600080fd5b50600080fd5b3480156100bf57600080fd5b506100da60048036038101906100d59190611565565b610318565b6040516100e79190611bc2565b60405180910390f35b3480156100fc57600080fd5b5061011760048036038101906101129190611565565b610338565b6040516101249190611a38565b60405180910390f35b34801561013957600080fd5b50610154600480360381019061014f9190611565565b610424565b60405161016b9b9a99989796959493929190611adb565b60405180910390f35b34801561018057600080fd5b5061019b60048036038101906101969190611565565b6106db565b6040516101a89190611a7c565b60405180910390f35b3480156101bd57600080fd5b506101d860048036038101906101d391906115ee565b6107ad565b6040516101e59190611ab9565b60405180910390f35b3480156101fa57600080fd5b5061021560048036038101906102109190611426565b610866565b6040516102229190611a9e565b60405180910390f35b34801561023757600080fd5b50610252600480360381019061024d9190611453565b610886565b60405161025f9190611a9e565b60405180910390f35b34801561027457600080fd5b5061028f600480360381019061028a91906115ee565b610a7a565b60405161029d9291906119d8565b60405180910390f35b6102c060048036038101906102bb9190611592565b610adb565b005b3480156102ce57600080fd5b506102d7610eef565b6040516102e49190611a5a565b60405180910390f35b3480156102f957600080fd5b5061030261123a565b60405161030f9190611bc2565b60405180910390f35b600060046000838152602001908152602001600020805490509050919050565b606060036000838152602001908152602001600020805480602002602001604051908101604052809291908181526020016000905b8282101561041957838290600052602060002001805461038c90611dfd565b80601f01602080910402602001604051908101604052809291908181526020018280546103b890611dfd565b80156104055780601f106103da57610100808354040283529160200191610405565b820191906000526020600020905b8154815290600101906020018083116103e857829003601f168201915b50505050508152602001906001019061036d565b505050509050919050565b6001818154811061043457600080fd5b90600052602060002090600b020160009150905080600001805461045790611dfd565b80601f016020809104026020016040519081016040528092919081815260200182805461048390611dfd565b80156104d05780601f106104a5576101008083540402835291602001916104d0565b820191906000526020600020905b8154815290600101906020018083116104b357829003601f168201915b5050505050908060010180546104e590611dfd565b80601f016020809104026020016040519081016040528092919081815260200182805461051190611dfd565b801561055e5780601f106105335761010080835404028352916020019161055e565b820191906000526020600020905b81548152906001019060200180831161054157829003601f168201915b50505050509080600201805461057390611dfd565b80601f016020809104026020016040519081016040528092919081815260200182805461059f90611dfd565b80156105ec5780601f106105c1576101008083540402835291602001916105ec565b820191906000526020600020905b8154815290600101906020018083116105cf57829003601f168201915b50505050509080600301805461060190611dfd565b80601f016020809104026020016040519081016040528092919081815260200182805461062d90611dfd565b801561067a5780601f1061064f5761010080835404028352916020019161067a565b820191906000526020600020905b81548152906001019060200180831161065d57829003601f168201915b5050505050908060040160009054906101000a900473ffffffffffffffffffffffffffffffffffffffff169080600501549080600601549080600701549080600801549080600901549080600a0160009054906101000a900460ff1690508b565b606060046000838152602001908152602001600020805480602002602001604051908101604052809291908181526020016000905b828210156107a257838290600052602060002090600202016040518060400160405290816000820160009054906101000a900473ffffffffffffffffffffffffffffffffffffffff1673ffffffffffffffffffffffffffffffffffffffff1673ffffffffffffffffffffffffffffffffffffffff16815260200160018201548152505081526020019060010190610710565b505050509050919050565b600360205281600052604060002081815481106107c957600080fd5b906000526020600020016000915091505080546107e590611dfd565b80601f016020809104026020016040519081016040528092919081815260200182805461081190611dfd565b801561085e5780601f106108335761010080835404028352916020019161085e565b820191906000526020600020905b81548152906001019060200180831161084157829003601f168201915b505050505081565b60026020528060005260406000206000915054906101000a900460ff1681565b6000610890611247565b88816000018190525087816020018190525086816080019073ffffffffffffffffffffffffffffffffffffffff16908173ffffffffffffffffffffffffffffffffffffffff1681525050428160a0018181525050858160c0018181525050848160e00181815250506000816101400190151590811515815250508381604001819052508281606001819052506001805490508161012001818152505060018190806001815401808255809150506001900390600052602060002090600b020160009091909190915060008201518160000190805190602001906109749291906112b9565b5060208201518160010190805190602001906109919291906112b9565b5060408201518160020190805190602001906109ae9291906112b9565b5060608201518160030190805190602001906109cb9291906112b9565b5060808201518160040160006101000a81548173ffffffffffffffffffffffffffffffffffffffff021916908373ffffffffffffffffffffffffffffffffffffffff16021790555060a0820151816005015560c0820151816006015560e082015181600701556101008201518160080155610120820151816009015561014082015181600a0160006101000a81548160ff02191690831515021790555050506001915050979650505050505050565b60046020528160005260406000208181548110610a9657600080fd5b9060005260206000209060020201600091509150508060000160009054906101000a900473ffffffffffffffffffffffffffffffffffffffff16908060010154905082565b60018281548110610aef57610aee611ebe565b5b90600052602060002090600b0201600a0160009054906101000a900460ff1615610b4e576040517f08c379a0000000000000000000000000000000000000000000000000000000008152600401610b4590611ba2565b60405180910390fd5b60018281548110610b6257610b61611ebe565b5b90600052602060002090600b020160060154421115610bf4576001808381548110610b9057610b8f611ebe565b5b90600052602060002090600b0201600a0160006101000a81548160ff0219169083151502179055507fe56a737eb0c0ee5006fce634c08f1871f50440c81db290174ca29693dfa9b2e882604051610be79190611bc2565b60405180910390a1600080fd5b600033905060018381548110610c0d57610c0c611ebe565b5b90600052602060002090600b020160040160009054906101000a900473ffffffffffffffffffffffffffffffffffffffff1673ffffffffffffffffffffffffffffffffffffffff166108fc349081150290604051600060405180830381858888f19350505050158015610c84573d6000803e3d6000fd5b503460018481548110610c9a57610c99611ebe565b5b90600052602060002090600b02016008016000828254610cba9190611d0b565b92505081905550610cc961133f565b81816000019073ffffffffffffffffffffffffffffffffffffffff16908173ffffffffffffffffffffffffffffffffffffffff1681525050348160200181815250506004600085815260200190815260200160002081908060018154018082558091505060019003906000526020600020906002020160009091909190915060008201518160000160006101000a81548173ffffffffffffffffffffffffffffffffffffffff021916908373ffffffffffffffffffffffffffffffffffffffff1602179055506020820151816001015550506003600085815260200190815260200160002083908060018154018082558091505060019003906000526020600020016000909190919091509080519060200190610de79291906112b9565b5060018481548110610dfc57610dfb611ebe565b5b90600052602060002090600b02016007015460018581548110610e2257610e21611ebe565b5b90600052602060002090600b02016008015410610eae576001808581548110610e4e57610e4d611ebe565b5b90600052602060002090600b0201600a0160006101000a81548160ff0219169083151502179055507fe56a737eb0c0ee5006fce634c08f1871f50440c81db290174ca29693dfa9b2e884604051610ea59190611bc2565b60405180910390a15b7f1f7f60fa7a0315c6a22ba0c122d2b40ad612cc5dc66602de5d7056e067e88232823486604051610ee193929190611a01565b60405180910390a150505050565b60606001805480602002602001604051908101604052809291908181526020016000905b8282101561123157838290600052602060002090600b020160405180610160016040529081600082018054610f4790611dfd565b80601f0160208091040260200160405190810160405280929190818152602001828054610f7390611dfd565b8015610fc05780601f10610f9557610100808354040283529160200191610fc0565b820191906000526020600020905b815481529060010190602001808311610fa357829003601f168201915b50505050508152602001600182018054610fd990611dfd565b80601f016020809104026020016040519081016040528092919081815260200182805461100590611dfd565b80156110525780601f1061102757610100808354040283529160200191611052565b820191906000526020600020905b81548152906001019060200180831161103557829003601f168201915b5050505050815260200160028201805461106b90611dfd565b80601f016020809104026020016040519081016040528092919081815260200182805461109790611dfd565b80156110e45780601f106110b9576101008083540402835291602001916110e4565b820191906000526020600020905b8154815290600101906020018083116110c757829003601f168201915b505050505081526020016003820180546110fd90611dfd565b80601f016020809104026020016040519081016040528092919081815260200182805461112990611dfd565b80156111765780601f1061114b57610100808354040283529160200191611176565b820191906000526020600020905b81548152906001019060200180831161115957829003601f168201915b505050505081526020016004820160009054906101000a900473ffffffffffffffffffffffffffffffffffffffff1673ffffffffffffffffffffffffffffffffffffffff1673ffffffffffffffffffffffffffffffffffffffff1681526020016005820154815260200160068201548152602001600782015481526020016008820154815260200160098201548152602001600a820160009054906101000a900460ff16151515158152505081526020019060010190610f13565b50505050905090565b6000600180549050905090565b60405180610160016040528060608152602001606081526020016060815260200160608152602001600073ffffffffffffffffffffffffffffffffffffffff16815260200160008152602001600081526020016000815260200160008152602001600081526020016000151581525090565b8280546112c590611dfd565b90600052602060002090601f0160209004810192826112e7576000855561132e565b82601f1061130057805160ff191683800117855561132e565b8280016001018555821561132e579182015b8281111561132d578251825591602001919060010190611312565b5b50905061133b919061136f565b5090565b6040518060400160405280600073ffffffffffffffffffffffffffffffffffffffff168152602001600081525090565b5b80821115611388576000816000905550600101611370565b5090565b600061139f61139a84611c02565b611bdd565b9050828152602081018484840111156113bb576113ba611f21565b5b6113c6848285611dbb565b509392505050565b6000813590506113dd81611f6a565b92915050565b600082601f8301126113f8576113f7611f1c565b5b813561140884826020860161138c565b91505092915050565b60008135905061142081611f81565b92915050565b60006020828403121561143c5761143b611f2b565b5b600061144a848285016113ce565b91505092915050565b600080600080600080600060e0888a03121561147257611471611f2b565b5b600088013567ffffffffffffffff8111156114905761148f611f26565b5b61149c8a828b016113e3565b975050602088013567ffffffffffffffff8111156114bd576114bc611f26565b5b6114c98a828b016113e3565b96505060406114da8a828b016113ce565b95505060606114eb8a828b01611411565b94505060806114fc8a828b01611411565b93505060a088013567ffffffffffffffff81111561151d5761151c611f26565b5b6115298a828b016113e3565b92505060c088013567ffffffffffffffff81111561154a57611549611f26565b5b6115568a828b016113e3565b91505092959891949750929550565b60006020828403121561157b5761157a611f2b565b5b600061158984828501611411565b91505092915050565b600080604083850312156115a9576115a8611f2b565b5b60006115b785828601611411565b925050602083013567ffffffffffffffff8111156115d8576115d7611f26565b5b6115e4858286016113e3565b9150509250929050565b6000806040838503121561160557611604611f2b565b5b600061161385828601611411565b925050602061162485828601611411565b9150509250929050565b600061163a83836117f2565b905092915050565b600061164e8383611887565b905092915050565b6000611662838361198b565b60408301905092915050565b61167781611d73565b82525050565b61168681611d73565b82525050565b600061169782611c63565b6116a18185611cb6565b9350836020820285016116b385611c33565b8060005b858110156116ef57848403895281516116d0858261162e565b94506116db83611c8f565b925060208a019950506001810190506116b7565b50829750879550505050505092915050565b600061170c82611c6e565b6117168185611cc7565b93508360208202850161172885611c43565b8060005b8581101561176457848403895281516117458582611642565b945061175083611c9c565b925060208a0199505060018101905061172c565b50829750879550505050505092915050565b600061178182611c79565b61178b8185611cd8565b935061179683611c53565b8060005b838110156117c75781516117ae8882611656565b97506117b983611ca9565b92505060018101905061179a565b5085935050505092915050565b6117dd81611d85565b82525050565b6117ec81611d85565b82525050565b60006117fd82611c84565b6118078185611ce9565b9350611817818560208601611dca565b61182081611f30565b840191505092915050565b600061183682611c84565b6118408185611cfa565b9350611850818560208601611dca565b61185981611f30565b840191505092915050565b6000611871601983611cfa565b915061187c82611f41565b602082019050919050565b60006101608301600083015184820360008601526118a582826117f2565b915050602083015184820360208601526118bf82826117f2565b915050604083015184820360408601526118d982826117f2565b915050606083015184820360608601526118f382826117f2565b9150506080830151611908608086018261166e565b5060a083015161191b60a08601826119ba565b5060c083015161192e60c08601826119ba565b5060e083015161194160e08601826119ba565b506101008301516119566101008601826119ba565b5061012083015161196b6101208601826119ba565b506101408301516119806101408601826117d4565b508091505092915050565b6040820160008201516119a1600085018261166e565b5060208201516119b460208501826119ba565b50505050565b6119c381611db1565b82525050565b6119d281611db1565b82525050565b60006040820190506119ed600083018561167d565b6119fa60208301846119c9565b9392505050565b6000606082019050611a16600083018661167d565b611a2360208301856119c9565b611a3060408301846119c9565b949350505050565b60006020820190508181036000830152611a52818461168c565b905092915050565b60006020820190508181036000830152611a748184611701565b905092915050565b60006020820190508181036000830152611a968184611776565b905092915050565b6000602082019050611ab360008301846117e3565b92915050565b60006020820190508181036000830152611ad3818461182b565b905092915050565b6000610160820190508181036000830152611af6818e61182b565b90508181036020830152611b0a818d61182b565b90508181036040830152611b1e818c61182b565b90508181036060830152611b32818b61182b565b9050611b41608083018a61167d565b611b4e60a08301896119c9565b611b5b60c08301886119c9565b611b6860e08301876119c9565b611b766101008301866119c9565b611b846101208301856119c9565b611b926101408301846117e3565b9c9b505050505050505050505050565b60006020820190508181036000830152611bbb81611864565b9050919050565b6000602082019050611bd760008301846119c9565b92915050565b6000611be7611bf8565b9050611bf38282611e2f565b919050565b6000604051905090565b600067ffffffffffffffff821115611c1d57611c1c611eed565b5b611c2682611f30565b9050602081019050919050565b6000819050602082019050919050565b6000819050602082019050919050565b6000819050602082019050919050565b600081519050919050565b600081519050919050565b600081519050919050565b600081519050919050565b6000602082019050919050565b6000602082019050919050565b6000602082019050919050565b600082825260208201905092915050565b600082825260208201905092915050565b600082825260208201905092915050565b600082825260208201905092915050565b600082825260208201905092915050565b6000611d1682611db1565b9150611d2183611db1565b9250827fffffffffffffffffffffffffffffffffffffffffffffffffffffffffffffffff03821115611d5657611d55611e60565b5b828201905092915050565b6000611d6c82611d91565b9050919050565b6000611d7e82611d91565b9050919050565b60008115159050919050565b600073ffffffffffffffffffffffffffffffffffffffff82169050919050565b6000819050919050565b82818337600083830152505050565b60005b83811015611de8578082015181840152602081019050611dcd565b83811115611df7576000848401525b50505050565b60006002820490506001821680611e1557607f821691505b60208210811415611e2957611e28611e8f565b5b50919050565b611e3882611f30565b810181811067ffffffffffffffff82111715611e5757611e56611eed565b5b80604052505050565b7f4e487b7100000000000000000000000000000000000000000000000000000000600052601160045260246000fd5b7f4e487b7100000000000000000000000000000000000000000000000000000000600052602260045260246000fd5b7f4e487b7100000000000000000000000000000000000000000000000000000000600052603260045260246000fd5b7f4e487b7100000000000000000000000000000000000000000000000000000000600052604160045260246000fd5b600080fd5b600080fd5b600080fd5b600080fd5b6000601f19601f8301169050919050565b7f54686520646f6e6174696f6e206861732066696e697368656400000000000000600082015250565b611f7381611d61565b8114611f7e57600080fd5b50565b611f8a81611db1565b8114611f9557600080fd5b5056fea2646970667358221220e28fe7dd60758d3edfa96df180e28cf7ac32afc4e751b6160b72e4f9b3310e8b64736f6c63430008060033",
  "immutableReferences": {},
  "source": "pragma solidity ^0.8.0;\r\n\r\ncontract SaveChildren{\r\n\r\n    struct Campaign{\r\n        string name;\r\n        string description;\r\n        string email;\r\n        string imageUrl;\r\n        address payable owner;\r\n        uint256 timeCreated;\r\n        uint256 blockDeadline;\r\n        uint256 goal;\r\n        uint256 raised;\r\n        uint256 id;\r\n        bool isFinished;\r\n    }\r\n\r\n    struct Donation{\r\n        address payable from;\r\n        uint256 amount;\r\n    }\r\n\r\n    //----------------------------FIELDS----------------\r\n\r\n    address private owner = msg.sender;\r\n\r\n    Campaign[] public campaigns;\r\n\r\n    mapping(address => bool) public admins;\r\n\r\n    mapping(uint256 => string[]) public mails;\r\n\r\n    //map of all donors of a certain campaign\r\n    mapping(uint256 => Donation[]) public donors;\r\n\r\n\r\n    //----------------------------MODIFIERS----------------\r\n\r\n\r\n\r\n    //----------------------------METHODS----------------\r\n\r\n    fallback() external{\r\n        revert();\r\n    }\r\n\r\n    function createCampaign(string memory _name, string memory _description, address _owner, uint256  _blockDeadline, uint256  _goal, string memory _email, string memory _url) public returns(bool){\r\n\r\n        Campaign memory newCamp;\r\n        newCamp.name = _name;\r\n        newCamp.description = _description;\r\n        newCamp.owner = payable(_owner);\r\n        newCamp.timeCreated = block.timestamp;\r\n        newCamp.blockDeadline = _blockDeadline;\r\n        newCamp.goal = _goal;\r\n        newCamp.isFinished = false;\r\n        newCamp.email = _email;\r\n        newCamp.imageUrl = _url;\r\n        newCamp.id = campaigns.length;\r\n        campaigns.push(newCamp);\r\n\r\n\r\n\r\n        return true;\r\n    }\r\n    // payable funkcija - iz adrese u contract\r\n    // payable adresa - contract salje na adresu\r\n\r\n    function donate(uint256 id, string memory _email) external payable{\r\n\r\n        require(!campaigns[id].isFinished, \"The donation has finished\");\r\n\r\n        if(block.timestamp > campaigns[id].blockDeadline){\r\n            campaigns[id].isFinished = true;\r\n            emit CampaignFinished(id);\r\n            revert();\r\n        }\r\n\r\n        address payable donor = payable(msg.sender);\r\n\r\n        campaigns[id].owner.transfer(msg.value);\r\n        campaigns[id].raised+=msg.value;\r\n\r\n        Donation memory newDon;\r\n        newDon.from = donor;\r\n        newDon.amount = msg.value;\r\n\r\n        donors[id].push(newDon);\r\n        mails[id].push(_email);\r\n\r\n       if(campaigns[id].raised >= campaigns[id].goal){\r\n           campaigns[id].isFinished = true;\r\n           emit CampaignFinished(id);\r\n       }\r\n\r\n        emit DonationEvent(donor, msg.value, id);\r\n    }\r\n\r\n    function getDonorsLength(uint256 id) public view returns(uint256){\r\n        return donors[id].length;\r\n    }\r\n\r\n    function getDonors(uint256 id) public view returns(Donation[] memory){\r\n        return donors[id];\r\n    }\r\n\r\n    function getCampaignsLength() public view returns(uint256){\r\n        return campaigns.length;\r\n    }\r\n\r\n    function getCampaigns() public view returns(Campaign[] memory){\r\n        return campaigns;\r\n    }\r\n    \r\n    function getMailsById(uint256 id) public view returns(string[] memory){\r\n        return mails[id];\r\n    }\r\n\r\n    //----------------------------EVENTS----------------\r\n    event DonationEvent(address payable from, uint256 amount, uint256 campId);\r\n\r\n    event CampaignFinished(uint256 campId);\r\n}",
  "sourcePath": "C:/Users/Luka/Desktop/SaveChildrenV2.0/src/contracts/SaveChildren.sol",
  "compiler": {
    "name": "solc",
    "version": "0.8.6+commit.11564f7e.Emscripten.clang"
  },
  "schemaVersion": "3.4.1",
  "updatedAt": "2021-07-29T20:55:15.664Z",
  "networkType": "ethereum",
  "devdoc": {
    "kind": "dev",
    "methods": {},
    "version": 1
  },
  "userdoc": {
    "kind": "user",
    "methods": {},
    "version": 1
  }
}