{
  "contractName": "SupportChildren",
  "abi": [
    {
      "inputs": [],
      "stateMutability": "nonpayable",
      "type": "constructor"
    },
    {
      "anonymous": false,
      "inputs": [
        {
          "indexed": false,
          "internalType": "uint256",
          "name": "campaignId",
          "type": "uint256"
        },
        {
          "components": [
            {
              "internalType": "uint256",
              "name": "endTimestamp",
              "type": "uint256"
            },
            {
              "internalType": "address payable",
              "name": "beneficiary",
              "type": "address"
            }
          ],
          "indexed": false,
          "internalType": "struct ISupportChildren.Campaign",
          "name": "campaign",
          "type": "tuple"
        }
      ],
      "name": "CampaignCreated",
      "type": "event"
    },
    {
      "anonymous": false,
      "inputs": [
        {
          "indexed": false,
          "internalType": "uint256",
          "name": "campaignId",
          "type": "uint256"
        },
        {
          "indexed": false,
          "internalType": "uint256",
          "name": "amount",
          "type": "uint256"
        },
        {
          "indexed": false,
          "internalType": "address",
          "name": "tokenAddress",
          "type": "address"
        }
      ],
      "name": "Donation",
      "type": "event"
    },
    {
      "anonymous": false,
      "inputs": [
        {
          "indexed": true,
          "internalType": "address",
          "name": "previousOwner",
          "type": "address"
        },
        {
          "indexed": true,
          "internalType": "address",
          "name": "newOwner",
          "type": "address"
        }
      ],
      "name": "OwnershipTransferred",
      "type": "event"
    },
    {
      "stateMutability": "nonpayable",
      "type": "fallback"
    },
    {
      "inputs": [
        {
          "internalType": "uint256",
          "name": "",
          "type": "uint256"
        }
      ],
      "name": "campaigns",
      "outputs": [
        {
          "internalType": "uint256",
          "name": "endTimestamp",
          "type": "uint256"
        },
        {
          "internalType": "address payable",
          "name": "beneficiary",
          "type": "address"
        }
      ],
      "stateMutability": "view",
      "type": "function",
      "constant": true
    },
    {
      "inputs": [
        {
          "internalType": "uint256",
          "name": "",
          "type": "uint256"
        },
        {
          "internalType": "uint256",
          "name": "",
          "type": "uint256"
        }
      ],
      "name": "donors",
      "outputs": [
        {
          "internalType": "address payable",
          "name": "from",
          "type": "address"
        },
        {
          "internalType": "uint256",
          "name": "amount",
          "type": "uint256"
        }
      ],
      "stateMutability": "view",
      "type": "function",
      "constant": true
    },
    {
      "inputs": [],
      "name": "owner",
      "outputs": [
        {
          "internalType": "address",
          "name": "",
          "type": "address"
        }
      ],
      "stateMutability": "view",
      "type": "function",
      "constant": true
    },
    {
      "inputs": [],
      "name": "quoter",
      "outputs": [
        {
          "internalType": "contract IQuoter",
          "name": "",
          "type": "address"
        }
      ],
      "stateMutability": "view",
      "type": "function",
      "constant": true
    },
    {
      "inputs": [],
      "name": "renounceOwnership",
      "outputs": [],
      "stateMutability": "nonpayable",
      "type": "function"
    },
    {
      "inputs": [
        {
          "internalType": "address",
          "name": "newOwner",
          "type": "address"
        }
      ],
      "name": "transferOwnership",
      "outputs": [],
      "stateMutability": "nonpayable",
      "type": "function"
    },
    {
      "inputs": [],
      "name": "uniswapRouter",
      "outputs": [
        {
          "internalType": "contract IUniswapRouter",
          "name": "",
          "type": "address"
        }
      ],
      "stateMutability": "view",
      "type": "function",
      "constant": true
    },
    {
      "inputs": [
        {
          "internalType": "address",
          "name": "token",
          "type": "address"
        },
        {
          "internalType": "uint256",
          "name": "amountOut",
          "type": "uint256"
        },
        {
          "internalType": "uint256",
          "name": "amountInMaximum",
          "type": "uint256"
        }
      ],
      "name": "convertTokenToExactEth",
      "outputs": [
        {
          "internalType": "uint256",
          "name": "",
          "type": "uint256"
        }
      ],
      "stateMutability": "nonpayable",
      "type": "function"
    },
    {
      "inputs": [
        {
          "internalType": "uint256",
          "name": "_campaignId",
          "type": "uint256"
        }
      ],
      "name": "isCampaignActive",
      "outputs": [
        {
          "internalType": "bool",
          "name": "",
          "type": "bool"
        }
      ],
      "stateMutability": "view",
      "type": "function",
      "constant": true
    },
    {
      "inputs": [
        {
          "internalType": "uint256",
          "name": "_campaignId",
          "type": "uint256"
        }
      ],
      "name": "getCampaign",
      "outputs": [
        {
          "components": [
            {
              "internalType": "uint256",
              "name": "endTimestamp",
              "type": "uint256"
            },
            {
              "internalType": "address payable",
              "name": "beneficiary",
              "type": "address"
            }
          ],
          "internalType": "struct ISupportChildren.Campaign",
          "name": "",
          "type": "tuple"
        }
      ],
      "stateMutability": "view",
      "type": "function",
      "constant": true
    },
    {
      "inputs": [],
      "name": "getCampaigns",
      "outputs": [
        {
          "components": [
            {
              "internalType": "uint256",
              "name": "endTimestamp",
              "type": "uint256"
            },
            {
              "internalType": "address payable",
              "name": "beneficiary",
              "type": "address"
            }
          ],
          "internalType": "struct ISupportChildren.Campaign[]",
          "name": "",
          "type": "tuple[]"
        }
      ],
      "stateMutability": "view",
      "type": "function",
      "constant": true
    },
    {
      "inputs": [
        {
          "internalType": "address payable",
          "name": "_beneficiary",
          "type": "address"
        },
        {
          "internalType": "uint256",
          "name": "_endTimestamp",
          "type": "uint256"
        }
      ],
      "name": "createCampaign",
      "outputs": [],
      "stateMutability": "nonpayable",
      "type": "function"
    },
    {
      "inputs": [
        {
          "internalType": "uint256",
          "name": "_campaignId",
          "type": "uint256"
        },
        {
          "internalType": "address",
          "name": "_token",
          "type": "address"
        },
        {
          "internalType": "uint256",
          "name": "_amount",
          "type": "uint256"
        },
        {
          "internalType": "string",
          "name": "_mail",
          "type": "string"
        }
      ],
      "name": "donateERC",
      "outputs": [],
      "stateMutability": "nonpayable",
      "type": "function"
    },
    {
      "inputs": [
        {
          "internalType": "uint256",
          "name": "_campaignId",
          "type": "uint256"
        },
        {
          "internalType": "string",
          "name": "_mail",
          "type": "string"
        }
      ],
      "name": "donateETH",
      "outputs": [],
      "stateMutability": "payable",
      "type": "function",
      "payable": true
    },
    {
      "inputs": [
        {
          "internalType": "uint256",
          "name": "_campaignId",
          "type": "uint256"
        },
        {
          "internalType": "string",
          "name": "_mail",
          "type": "string"
        },
        {
          "internalType": "address",
          "name": "token",
          "type": "address"
        },
        {
          "internalType": "uint256",
          "name": "amountOut",
          "type": "uint256"
        },
        {
          "internalType": "uint256",
          "name": "amountInMax",
          "type": "uint256"
        }
      ],
      "name": "donateTokenToETHCamp",
      "outputs": [],
      "stateMutability": "nonpayable",
      "type": "function"
    },
    {
      "inputs": [
        {
          "internalType": "uint256",
          "name": "_campaignId",
          "type": "uint256"
        },
        {
          "internalType": "string",
          "name": "_mail",
          "type": "string"
        },
        {
          "internalType": "address",
          "name": "tokenIn",
          "type": "address"
        },
        {
          "internalType": "address",
          "name": "tokenOut",
          "type": "address"
        },
        {
          "internalType": "uint256",
          "name": "amountOut",
          "type": "uint256"
        },
        {
          "internalType": "uint256",
          "name": "amountInMax",
          "type": "uint256"
        }
      ],
      "name": "donateTokenToTokenCamp",
      "outputs": [],
      "stateMutability": "nonpayable",
      "type": "function"
    }
  ],
  "bytecode": "0x60806040523480156200001157600080fd5b5062000032620000266200003860201b60201c565b6200004060201b60201c565b62000104565b600033905090565b60008060009054906101000a900473ffffffffffffffffffffffffffffffffffffffff169050816000806101000a81548173ffffffffffffffffffffffffffffffffffffffff021916908373ffffffffffffffffffffffffffffffffffffffff1602179055508173ffffffffffffffffffffffffffffffffffffffff168173ffffffffffffffffffffffffffffffffffffffff167f8be0079c531659141344cd1fd0a4f28419497f9722a3daafe3b4186f6b6457e060405160405180910390a35050565b612ce980620001146000396000f3fe6080604052600436106100f75760003560e01c80638da5cb5b1161008a578063e1e3300911610059578063e1e3300914610331578063e5b8a7bc1461036e578063f2fde38b14610397578063f7af3d06146103c0576100f8565b80638da5cb5b14610294578063a6b03633146102bf578063c6bbd5a7146102ea578063de514b3c14610315576100f8565b80635e8d34b1116100c65780635e8d34b1146101d7578063715018a614610214578063735de9f71461022b57806383bd62dd14610256576100f8565b8063064e1faf1461010a578063141961bc146101335780632aebd684146101715780635598f8cc1461019a576100f8565b5b34801561010457600080fd5b50600080fd5b34801561011657600080fd5b50610131600480360381019061012c9190611c38565b6103e9565b005b34801561013f57600080fd5b5061015a60048036038101906101559190611cf8565b610564565b6040516101689291906125fc565b60405180910390f35b34801561017d57600080fd5b5061019860048036038101906101939190611e31565b6105b8565b005b3480156101a657600080fd5b506101c160048036038101906101bc9190611cf8565b61061e565b6040516101ce91906125aa565b60405180910390f35b3480156101e357600080fd5b506101fe60048036038101906101f99190611c78565b6106ba565b60405161020b91906125e1565b60405180910390f35b34801561022057600080fd5b50610229610b94565b005b34801561023757600080fd5b50610240610c1c565b60405161024d919061244f565b60405180910390f35b34801561026257600080fd5b5061027d60048036038101906102789190611f71565b610c34565b60405161028b929190612345565b60405180910390f35b3480156102a057600080fd5b506102a9610c95565b6040516102b6919061232a565b60405180910390f35b3480156102cb57600080fd5b506102d4610cbe565b6040516102e191906123f7565b60405180910390f35b3480156102f657600080fd5b506102ff610d7d565b60405161030c9190612434565b60405180910390f35b61032f600480360381019061032a9190611dd5565b610d95565b005b34801561033d57600080fd5b5061035860048036038101906103539190611cf8565b6110ac565b6040516103659190612419565b60405180910390f35b34801561037a57600080fd5b5061039560048036038101906103909190611d52565b6110dd565b005b3480156103a357600080fd5b506103be60048036038101906103b99190611c0b565b6113b0565b005b3480156103cc57600080fd5b506103e760048036038101906103e29190611eda565b6114a8565b005b42811161042b576040517f08c379a00000000000000000000000000000000000000000000000000000000081526004016104229061252a565b60405180910390fd5b60008073ffffffffffffffffffffffffffffffffffffffff168373ffffffffffffffffffffffffffffffffffffffff16146104685782905061046c565b3390505b600060405180604001604052808481526020018373ffffffffffffffffffffffffffffffffffffffff1681525090506000600180549050905060018290806001815401808255809150506001900390600052602060002090600202016000909190919091506000820151816000015560208201518160010160006101000a81548173ffffffffffffffffffffffffffffffffffffffff021916908373ffffffffffffffffffffffffffffffffffffffff16021790555050507fd6541da152771c0618fdaa8fbbf27b1f5bc047b118317aa3863ab6dfe5c923d78183604051610555929190612625565b60405180910390a15050505050565b6001818154811061057457600080fd5b90600052602060002090600202016000915090508060000154908060010160009054906101000a900473ffffffffffffffffffffffffffffffffffffffff16905082565b60006105c68585858561150c565b90506002600088815260200190815260200160002086908060018154018082558091505060019003906000526020600020016000909190919091509080519060200190610614929190611a2f565b5050505050505050565b610626611ab5565b6001828154811061063a57610639612930565b5b9060005260206000209060020201604051806040016040529081600082015481526020016001820160009054906101000a900473ffffffffffffffffffffffffffffffffffffffff1673ffffffffffffffffffffffffffffffffffffffff1673ffffffffffffffffffffffffffffffffffffffff16815250509050919050565b600080735592ec0cfb4dbc12d3ab100b257153436a1f0fea73ffffffffffffffffffffffffffffffffffffffff1663dd62ed3e33306040518363ffffffff1660e01b815260040161070c92919061236e565b60206040518083038186803b15801561072457600080fd5b505afa158015610738573d6000803e3d6000fd5b505050506040513d601f19601f8201168201806040525081019061075c9190611d25565b9050828110156107a1576040517f08c379a0000000000000000000000000000000000000000000000000000000008152600401610798906124ca565b60405180910390fd5b735592ec0cfb4dbc12d3ab100b257153436a1f0fea73ffffffffffffffffffffffffffffffffffffffff166323b872dd3330866040518463ffffffff1660e01b81526004016107f293929190612397565b602060405180830381600087803b15801561080c57600080fd5b505af1158015610820573d6000803e3d6000fd5b505050506040513d601f19601f820116820180604052508101906108449190611ccb565b506000600f426108549190612725565b90506000735592ec0cfb4dbc12d3ab100b257153436a1f0fea9050600073c02aaa39b223fe8d0a0e5c4f27ead9083c756cc290506000610bb8905060003090506000735592ec0cfb4dbc12d3ab100b257153436a1f0fea73ffffffffffffffffffffffffffffffffffffffff1663095ea7b373e592427a0aece92de3edee1f18e0157c058615648b6040518363ffffffff1660e01b81526004016108f99291906123ce565b602060405180830381600087803b15801561091357600080fd5b505af1158015610927573d6000803e3d6000fd5b505050506040513d601f19601f8201168201806040525081019061094b9190611ccb565b5060006040518061010001604052808773ffffffffffffffffffffffffffffffffffffffff1681526020018673ffffffffffffffffffffffffffffffffffffffff1681526020018562ffffff1681526020018473ffffffffffffffffffffffffffffffffffffffff1681526020018881526020018c81526020018b81526020018373ffffffffffffffffffffffffffffffffffffffff168152509050600073e592427a0aece92de3edee1f18e0157c0586156473ffffffffffffffffffffffffffffffffffffffff1663db3e2198836040518263ffffffff1660e01b8152600401610a3691906125c5565b602060405180830381600087803b158015610a5057600080fd5b505af1158015610a64573d6000803e3d6000fd5b505050506040513d601f19601f82011682018060405250810190610a889190611d25565b90506000818c610a98919061277b565b90506000735592ec0cfb4dbc12d3ab100b257153436a1f0fea73ffffffffffffffffffffffffffffffffffffffff1663a9059cbb33846040518363ffffffff1660e01b8152600401610aeb9291906123ce565b602060405180830381600087803b158015610b0557600080fd5b505af1158015610b19573d6000803e3d6000fd5b505050506040513d601f19601f82011682018060405250810190610b3d9190611ccb565b905080610b7f576040517f08c379a0000000000000000000000000000000000000000000000000000000008152600401610b769061256a565b60405180910390fd5b829b5050505050505050505050509392505050565b610b9c611963565b73ffffffffffffffffffffffffffffffffffffffff16610bba610c95565b73ffffffffffffffffffffffffffffffffffffffff1614610c10576040517f08c379a0000000000000000000000000000000000000000000000000000000008152600401610c079061250a565b60405180910390fd5b610c1a600061196b565b565b73e592427a0aece92de3edee1f18e0157c0586156481565b60036020528160005260406000208181548110610c5057600080fd5b9060005260206000209060020201600091509150508060000160009054906101000a900473ffffffffffffffffffffffffffffffffffffffff16908060010154905082565b60008060009054906101000a900473ffffffffffffffffffffffffffffffffffffffff16905090565b60606001805480602002602001604051908101604052809291908181526020016000905b82821015610d745783829060005260206000209060020201604051806040016040529081600082015481526020016001820160009054906101000a900473ffffffffffffffffffffffffffffffffffffffff1673ffffffffffffffffffffffffffffffffffffffff1673ffffffffffffffffffffffffffffffffffffffff168152505081526020019060010190610ce2565b50505050905090565b73b27308f9f90d607463bb33ea1bebb41c27ce5ab681565b6001805490508210610ddc576040517f08c379a0000000000000000000000000000000000000000000000000000000008152600401610dd39061258a565b60405180910390fd5b610de5826110ac565b610e24576040517f08c379a0000000000000000000000000000000000000000000000000000000008152600401610e1b906124ea565b60405180910390fd5b60003411610e67576040517f08c379a0000000000000000000000000000000000000000000000000000000008152600401610e5e906124aa565b60405180910390fd5b600060018381548110610e7d57610e7c612930565b5b9060005260206000209060020201604051806040016040529081600082015481526020016001820160009054906101000a900473ffffffffffffffffffffffffffffffffffffffff1673ffffffffffffffffffffffffffffffffffffffff1673ffffffffffffffffffffffffffffffffffffffff16815250509050806020015173ffffffffffffffffffffffffffffffffffffffff166108fc349081150290604051600060405180830381858888f19350505050158015610f42573d6000803e3d6000fd5b50610f4b611ae5565b33816000019073ffffffffffffffffffffffffffffffffffffffff16908173ffffffffffffffffffffffffffffffffffffffff1681525050348160200181815250506003600085815260200190815260200160002081908060018154018082558091505060019003906000526020600020906002020160009091909190915060008201518160000160006101000a81548173ffffffffffffffffffffffffffffffffffffffff021916908373ffffffffffffffffffffffffffffffffffffffff1602179055506020820151816001015550506002600085815260200190815260200160002083908060018154018082558091505060019003906000526020600020016000909190919091509080519060200190611069929190611a2f565b507fe6c8b2c0b4841288da79a2b2270034e656f4d5b859ae0dd2be4179ac21b38ea58434600060405161109e9392919061264e565b60405180910390a150505050565b600042600183815481106110c3576110c2612930565b5b906000526020600020906002020160000154119050919050565b6001805490508410611124576040517f08c379a000000000000000000000000000000000000000000000000000000000815260040161111b9061248a565b60405180910390fd5b61112d846110ac565b61116c576040517f08c379a00000000000000000000000000000000000000000000000000000000081526004016111639061254a565b60405180910390fd5b60006001858154811061118257611181612930565b5b906000526020600020906002020160010160009054906101000a900473ffffffffffffffffffffffffffffffffffffffff1690506111be611ae5565b33816000019073ffffffffffffffffffffffffffffffffffffffff16908173ffffffffffffffffffffffffffffffffffffffff1681525050838160200181815250506003600087815260200190815260200160002081908060018154018082558091505060019003906000526020600020906002020160009091909190915060008201518160000160006101000a81548173ffffffffffffffffffffffffffffffffffffffff021916908373ffffffffffffffffffffffffffffffffffffffff16021790555060208201518160010155505060026000878152602001908152602001600020839080600181540180825580915050600190039060005260206000200160009091909190915090805190602001906112dc929190611a2f565b508473ffffffffffffffffffffffffffffffffffffffff166323b872dd3384876040518463ffffffff1660e01b815260040161131a93929190612397565b602060405180830381600087803b15801561133457600080fd5b505af1158015611348573d6000803e3d6000fd5b505050506040513d601f19601f8201168201806040525081019061136c9190611ccb565b507fe6c8b2c0b4841288da79a2b2270034e656f4d5b859ae0dd2be4179ac21b38ea58685876040516113a09392919061264e565b60405180910390a1505050505050565b6113b8611963565b73ffffffffffffffffffffffffffffffffffffffff166113d6610c95565b73ffffffffffffffffffffffffffffffffffffffff161461142c576040517f08c379a00000000000000000000000000000000000000000000000000000000081526004016114239061250a565b60405180910390fd5b600073ffffffffffffffffffffffffffffffffffffffff168173ffffffffffffffffffffffffffffffffffffffff16141561149c576040517f08c379a00000000000000000000000000000000000000000000000000000000081526004016114939061246a565b60405180910390fd5b6114a58161196b565b50565b60006114b58484846106ba565b90506002600087815260200190815260200160002085908060018154018082558091505060019003906000526020600020016000909190919091509080519060200190611503929190611a2f565b50505050505050565b6000808573ffffffffffffffffffffffffffffffffffffffff1663dd62ed3e33306040518363ffffffff1660e01b815260040161154a92919061236e565b60206040518083038186803b15801561156257600080fd5b505afa158015611576573d6000803e3d6000fd5b505050506040513d601f19601f8201168201806040525081019061159a9190611d25565b9050828110156115df576040517f08c379a00000000000000000000000000000000000000000000000000000000081526004016115d6906124ca565b60405180910390fd5b8573ffffffffffffffffffffffffffffffffffffffff166323b872dd3330866040518463ffffffff1660e01b815260040161161c93929190612397565b602060405180830381600087803b15801561163657600080fd5b505af115801561164a573d6000803e3d6000fd5b505050506040513d601f19601f8201168201806040525081019061166e9190611ccb565b506000600f4261167e9190612725565b90506000610bb89050600030905060008973ffffffffffffffffffffffffffffffffffffffff1663095ea7b373e592427a0aece92de3edee1f18e0157c05861564896040518363ffffffff1660e01b81526004016116dd9291906123ce565b602060405180830381600087803b1580156116f757600080fd5b505af115801561170b573d6000803e3d6000fd5b505050506040513d601f19601f8201168201806040525081019061172f9190611ccb565b5060006040518061010001604052808c73ffffffffffffffffffffffffffffffffffffffff1681526020018b73ffffffffffffffffffffffffffffffffffffffff1681526020018562ffffff1681526020018473ffffffffffffffffffffffffffffffffffffffff1681526020018681526020018a81526020018981526020018373ffffffffffffffffffffffffffffffffffffffff168152509050600073e592427a0aece92de3edee1f18e0157c0586156473ffffffffffffffffffffffffffffffffffffffff1663db3e2198836040518263ffffffff1660e01b815260040161181a91906125c5565b602060405180830381600087803b15801561183457600080fd5b505af1158015611848573d6000803e3d6000fd5b505050506040513d601f19601f8201168201806040525081019061186c9190611d25565b90506000818a61187c919061277b565b905060008d73ffffffffffffffffffffffffffffffffffffffff1663a9059cbb33846040518363ffffffff1660e01b81526004016118bb9291906123ce565b602060405180830381600087803b1580156118d557600080fd5b505af11580156118e9573d6000803e3d6000fd5b505050506040513d601f19601f8201168201806040525081019061190d9190611ccb565b90508061194f576040517f08c379a00000000000000000000000000000000000000000000000000000000081526004016119469061256a565b60405180910390fd5b829950505050505050505050949350505050565b600033905090565b60008060009054906101000a900473ffffffffffffffffffffffffffffffffffffffff169050816000806101000a81548173ffffffffffffffffffffffffffffffffffffffff021916908373ffffffffffffffffffffffffffffffffffffffff1602179055508173ffffffffffffffffffffffffffffffffffffffff168173ffffffffffffffffffffffffffffffffffffffff167f8be0079c531659141344cd1fd0a4f28419497f9722a3daafe3b4186f6b6457e060405160405180910390a35050565b828054611a3b9061286f565b90600052602060002090601f016020900481019282611a5d5760008555611aa4565b82601f10611a7657805160ff1916838001178555611aa4565b82800160010185558215611aa4579182015b82811115611aa3578251825591602001919060010190611a88565b5b509050611ab19190611b15565b5090565b604051806040016040528060008152602001600073ffffffffffffffffffffffffffffffffffffffff1681525090565b6040518060400160405280600073ffffffffffffffffffffffffffffffffffffffff168152602001600081525090565b5b80821115611b2e576000816000905550600101611b16565b5090565b6000611b45611b40846126aa565b612685565b905082815260208101848484011115611b6157611b60612993565b5b611b6c848285612860565b509392505050565b600081359050611b8381612c57565b92915050565b600081359050611b9881612c6e565b92915050565b600081519050611bad81612c85565b92915050565b600082601f830112611bc857611bc761298e565b5b8135611bd8848260208601611b32565b91505092915050565b600081359050611bf081612c9c565b92915050565b600081519050611c0581612c9c565b92915050565b600060208284031215611c2157611c2061299d565b5b6000611c2f84828501611b74565b91505092915050565b60008060408385031215611c4f57611c4e61299d565b5b6000611c5d85828601611b89565b9250506020611c6e85828601611be1565b9150509250929050565b600080600060608486031215611c9157611c9061299d565b5b6000611c9f86828701611b74565b9350506020611cb086828701611be1565b9250506040611cc186828701611be1565b9150509250925092565b600060208284031215611ce157611ce061299d565b5b6000611cef84828501611b9e565b91505092915050565b600060208284031215611d0e57611d0d61299d565b5b6000611d1c84828501611be1565b91505092915050565b600060208284031215611d3b57611d3a61299d565b5b6000611d4984828501611bf6565b91505092915050565b60008060008060808587031215611d6c57611d6b61299d565b5b6000611d7a87828801611be1565b9450506020611d8b87828801611b74565b9350506040611d9c87828801611be1565b925050606085013567ffffffffffffffff811115611dbd57611dbc612998565b5b611dc987828801611bb3565b91505092959194509250565b60008060408385031215611dec57611deb61299d565b5b6000611dfa85828601611be1565b925050602083013567ffffffffffffffff811115611e1b57611e1a612998565b5b611e2785828601611bb3565b9150509250929050565b60008060008060008060c08789031215611e4e57611e4d61299d565b5b6000611e5c89828a01611be1565b965050602087013567ffffffffffffffff811115611e7d57611e7c612998565b5b611e8989828a01611bb3565b9550506040611e9a89828a01611b74565b9450506060611eab89828a01611b74565b9350506080611ebc89828a01611be1565b92505060a0611ecd89828a01611be1565b9150509295509295509295565b600080600080600060a08688031215611ef657611ef561299d565b5b6000611f0488828901611be1565b955050602086013567ffffffffffffffff811115611f2557611f24612998565b5b611f3188828901611bb3565b9450506040611f4288828901611b74565b9350506060611f5388828901611be1565b9250506080611f6488828901611be1565b9150509295509295909350565b60008060408385031215611f8857611f8761299d565b5b6000611f9685828601611be1565b9250506020611fa785828601611be1565b9150509250929050565b6000611fbd83836121ee565b60408301905092915050565b611fd2816127c1565b82525050565b611fe1816127c1565b82525050565b611ff0816127af565b82525050565b611fff816127af565b82525050565b6000612010826126eb565b61201a8185612703565b9350612025836126db565b8060005b8381101561205657815161203d8882611fb1565b9750612048836126f6565b925050600181019050612029565b5085935050505092915050565b61206c816127d3565b82525050565b61207b81612818565b82525050565b61208a8161283c565b82525050565b600061209d602683612714565b91506120a8826129b3565b604082019050919050565b60006120c0603a83612714565b91506120cb82612a02565b604082019050919050565b60006120e3602f83612714565b91506120ee82612a51565b604082019050919050565b6000612106601983612714565b915061211182612aa0565b602082019050919050565b6000612129602f83612714565b915061213482612ac9565b604082019050919050565b600061214c602083612714565b915061215782612b18565b602082019050919050565b600061216f604083612714565b915061217a82612b41565b604082019050919050565b6000612192602c83612714565b915061219d82612b90565b604082019050919050565b60006121b5600d83612714565b91506121c082612bdf565b602082019050919050565b60006121d8603d83612714565b91506121e382612c08565b604082019050919050565b604082016000820151612204600085018261230c565b5060208201516122176020850182611fc9565b50505050565b604082016000820151612233600085018261230c565b5060208201516122466020850182611fc9565b50505050565b610100820160008201516122636000850182611fe7565b5060208201516122766020850182611fe7565b50604082015161228960408501826122fd565b50606082015161229c6060850182611fe7565b5060808201516122af608085018261230c565b5060a08201516122c260a085018261230c565b5060c08201516122d560c085018261230c565b5060e08201516122e860e08501826122ee565b50505050565b6122f7816127df565b82525050565b612306816127ff565b82525050565b6123158161280e565b82525050565b6123248161280e565b82525050565b600060208201905061233f6000830184611ff6565b92915050565b600060408201905061235a6000830185611fd8565b612367602083018461231b565b9392505050565b60006040820190506123836000830185611ff6565b6123906020830184611ff6565b9392505050565b60006060820190506123ac6000830186611ff6565b6123b96020830185611ff6565b6123c6604083018461231b565b949350505050565b60006040820190506123e36000830185611ff6565b6123f0602083018461231b565b9392505050565b600060208201905081810360008301526124118184612005565b905092915050565b600060208201905061242e6000830184612063565b92915050565b60006020820190506124496000830184612072565b92915050565b60006020820190506124646000830184612081565b92915050565b6000602082019050818103600083015261248381612090565b9050919050565b600060208201905081810360008301526124a3816120b3565b9050919050565b600060208201905081810360008301526124c3816120d6565b9050919050565b600060208201905081810360008301526124e3816120f9565b9050919050565b600060208201905081810360008301526125038161211c565b9050919050565b600060208201905081810360008301526125238161213f565b9050919050565b6000602082019050818103600083015261254381612162565b9050919050565b6000602082019050818103600083015261256381612185565b9050919050565b60006020820190508181036000830152612583816121a8565b9050919050565b600060208201905081810360008301526125a3816121cb565b9050919050565b60006040820190506125bf600083018461221d565b92915050565b6000610100820190506125db600083018461224c565b92915050565b60006020820190506125f6600083018461231b565b92915050565b6000604082019050612611600083018561231b565b61261e6020830184611fd8565b9392505050565b600060608201905061263a600083018561231b565b612647602083018461221d565b9392505050565b6000606082019050612663600083018661231b565b612670602083018561231b565b61267d6040830184611ff6565b949350505050565b600061268f6126a0565b905061269b82826128a1565b919050565b6000604051905090565b600067ffffffffffffffff8211156126c5576126c461295f565b5b6126ce826129a2565b9050602081019050919050565b6000819050602082019050919050565b600081519050919050565b6000602082019050919050565b600082825260208201905092915050565b600082825260208201905092915050565b60006127308261280e565b915061273b8361280e565b9250827fffffffffffffffffffffffffffffffffffffffffffffffffffffffffffffffff038211156127705761276f6128d2565b5b828201905092915050565b60006127868261280e565b91506127918361280e565b9250828210156127a4576127a36128d2565b5b828203905092915050565b60006127ba826127df565b9050919050565b60006127cc826127df565b9050919050565b60008115159050919050565b600073ffffffffffffffffffffffffffffffffffffffff82169050919050565b600062ffffff82169050919050565b6000819050919050565b60006128238261282a565b9050919050565b6000612835826127df565b9050919050565b60006128478261284e565b9050919050565b6000612859826127df565b9050919050565b82818337600083830152505050565b6000600282049050600182168061288757607f821691505b6020821081141561289b5761289a612901565b5b50919050565b6128aa826129a2565b810181811067ffffffffffffffff821117156128c9576128c861295f565b5b80604052505050565b7f4e487b7100000000000000000000000000000000000000000000000000000000600052601160045260246000fd5b7f4e487b7100000000000000000000000000000000000000000000000000000000600052602260045260246000fd5b7f4e487b7100000000000000000000000000000000000000000000000000000000600052603260045260246000fd5b7f4e487b7100000000000000000000000000000000000000000000000000000000600052604160045260246000fd5b600080fd5b600080fd5b600080fd5b600080fd5b6000601f19601f8301169050919050565b7f4f776e61626c653a206e6577206f776e657220697320746865207a65726f206160008201527f6464726573730000000000000000000000000000000000000000000000000000602082015250565b7f537570706f72744368696c6472656e3a3a646f6e6174653a204e6f6e2065786960008201527f7374656e742063616d706169676e2069642070726f7669646564000000000000602082015250565b7f537570706f72744368696c6472656e3a3a646f6e6174654554483a20596f752060008201527f6d7573742073656e642065746865720000000000000000000000000000000000602082015250565b7f436865636b2074686520746f6b656e20616c6c6f77616e636500000000000000600082015250565b7f537570706f72744368696c6472656e3a3a646f6e6174654554483a2043616d7060008201527f6169676e206e6f74206163746976650000000000000000000000000000000000602082015250565b7f4f776e61626c653a2063616c6c6572206973206e6f7420746865206f776e6572600082015250565b7f537570706f72744368696c6472656e3a3a63726561746543616d706169676e3a60008201527f2043616d706169676e206d75737420656e6420696e2074686520667574757265602082015250565b7f537570706f72744368696c6472656e3a3a646f6e6174653a2043616d7061696760008201527f6e206e6f74206163746976650000000000000000000000000000000000000000602082015250565b7f726566756e64206661696c656400000000000000000000000000000000000000600082015250565b7f537570706f72744368696c6472656e3a3a646f6e6174654554483a204e6f6e2060008201527f6578697374656e742063616d706169676e2069642070726f7669646564000000602082015250565b612c60816127af565b8114612c6b57600080fd5b50565b612c77816127c1565b8114612c8257600080fd5b50565b612c8e816127d3565b8114612c9957600080fd5b50565b612ca58161280e565b8114612cb057600080fd5b5056fea26469706673582212207c837abd049f47b0e4b57ba9375513a3eecf3d44110246f20b168da3aa8b82cb64736f6c63430008060033",
  "immutableReferences": {},
  "source": "pragma solidity ^0.8.0;\r\npragma abicoder v2;\r\n\r\nimport \"@openzeppelin/contracts/access/Ownable.sol\";\r\nimport \"@openzeppelin/contracts/utils/math/SafeMath.sol\";\r\nimport \"@openzeppelin/contracts/token/ERC20/utils/SafeERC20.sol\";\r\nimport \"@openzeppelin/contracts/token/ERC20/IERC20.sol\";\r\nimport \"./interfaces/ISupportChildren.sol\";\r\n\r\nimport \"@uniswap/v3-periphery/contracts/interfaces/ISwapRouter.sol\";\r\nimport \"@uniswap/v3-periphery/contracts/interfaces/IQuoter.sol\";\r\n\r\ninterface IUniswapRouter is ISwapRouter {\r\n    function refundETH() external payable;\r\n}\r\n\r\ninterface IUniswap {\r\n    function swapExactTokensForETHSupportingFeeOnTransferTokens(\r\n        uint amountIn,\r\n        uint amountOutMin,\r\n        address[] calldata path,\r\n        address to,\r\n        uint deadline)\r\n        external \r\n        returns (uint[] memory amounts);\r\n\r\n        function WETH() external pure returns(address);\r\n}\r\n\r\n\r\ncontract SupportChildren is Ownable, ISupportChildren {\r\n    using SafeMath for uint;\r\n    using SafeERC20 for IERC20;\r\n\r\n    IUniswapRouter public constant uniswapRouter = IUniswapRouter(0xE592427A0AEce92De3Edee1F18E0157C05861564);\r\n    IQuoter public constant quoter = IQuoter(0xb27308f9F90D607463bb33eA1BeBb41C27CE5AB6);\r\n    address private constant WETH9 = 0xC02aaA39b223FE8D0A0e5C4F27eAD9083C756Cc2;\r\n    \r\n\r\n    address private constant dai = 0x5592EC0cfb4dbc12D3aB100b257153436a1f0FEa;\r\n\r\n    constructor() {\r\n    }\r\n\r\n    //--------------------UNISWAP FUNCTIONS------------------------\r\n\r\n    function convertExactEthToToken(address token) internal {\r\n        require(msg.value > 0, \"Must pass non 0 ETH amount\");\r\n\r\n        uint256 deadline = block.timestamp + 15; // using 'now' for convenience, for mainnet pass deadline from frontend!\r\n        address tokenIn = WETH9;\r\n        address tokenOut = token;\r\n        uint24 fee = 3000;\r\n        address recipient = address(this);\r\n        uint256 amountIn = msg.value;\r\n        uint256 amountOutMinimum = 1;\r\n        uint160 sqrtPriceLimitX96 = 0;\r\n        \r\n        ISwapRouter.ExactInputSingleParams memory params = ISwapRouter.ExactInputSingleParams(\r\n            tokenIn,\r\n            tokenOut,\r\n            fee,\r\n            recipient,\r\n            deadline,\r\n            amountIn,\r\n            amountOutMinimum,\r\n            sqrtPriceLimitX96\r\n        );\r\n        \r\n        uniswapRouter.exactInputSingle{ value: msg.value }(params);\r\n        uniswapRouter.refundETH();\r\n        \r\n        // refund leftover ETH to user\r\n        (bool success,) = msg.sender.call{ value: address(this).balance }(\"\");\r\n        require(success, \"refund failed\");\r\n    }\r\n\r\n    function convertTokenToExactEth(address token, uint amountOut, uint amountInMaximum) public returns (uint256) {\r\n        uint256 allowance = IERC20(dai).allowance(msg.sender, address(this));\r\n        require(allowance >= amountInMaximum, \"Check the token allowance\");\r\n        IERC20(dai).transferFrom(msg.sender, address(this), amountInMaximum);\r\n        uint256 deadline = block.timestamp + 15; // using 'now' for convenience, for mainnet pass deadline from frontend!\r\n        address tokenIn = dai;\r\n        address tokenOut = WETH9;\r\n        uint24 fee = 3000;\r\n        address recipient = address(this);\r\n        uint160 sqrtPriceLimitX96 = 0;\r\n        IERC20(dai).approve(address(uniswapRouter), amountInMaximum);\r\n        \r\n        ISwapRouter.ExactOutputSingleParams memory params = ISwapRouter.ExactOutputSingleParams(\r\n            tokenIn,\r\n            tokenOut,\r\n            fee,\r\n            recipient,\r\n            deadline,\r\n            amountOut,\r\n            amountInMaximum,\r\n            sqrtPriceLimitX96\r\n        );\r\n        \r\n        uint256 amountOfTokenUsed = uniswapRouter.exactOutputSingle(params);\r\n        uint256 remainderOfTokens = amountInMaximum-amountOfTokenUsed;\r\n        // refund leftover Tokens to user\r\n        (bool success) = IERC20(dai).transfer(msg.sender, remainderOfTokens);\r\n        require(success, \"refund failed\");\r\n        \r\n        return amountOfTokenUsed;\r\n    }\r\n\r\n    function convertTokenToExactToken(address tokenIn, address tokenOut, uint amountOut, uint amountInMaximum) internal returns (uint256) {\r\n    uint256 allowance = IERC20(tokenIn).allowance(msg.sender, address(this));\r\n    require(allowance >= amountInMaximum, \"Check the token allowance\");\r\n    IERC20(tokenIn).transferFrom(msg.sender, address(this), amountInMaximum);\r\n    uint256 deadline = block.timestamp + 15; // using 'now' for convenience, for mainnet pass deadline from frontend!\r\n    uint24 fee = 3000;\r\n    address recipient = address(this);\r\n    uint160 sqrtPriceLimitX96 = 0;\r\n    IERC20(tokenIn).approve(address(uniswapRouter), amountInMaximum);\r\n    \r\n    ISwapRouter.ExactOutputSingleParams memory params = ISwapRouter.ExactOutputSingleParams(\r\n        tokenIn,\r\n        tokenOut,\r\n        fee,\r\n        recipient,\r\n        deadline,\r\n        amountOut,\r\n        amountInMaximum,\r\n        sqrtPriceLimitX96\r\n    );\r\n    \r\n    uint256 amountOfTokenUsed = uniswapRouter.exactOutputSingle(params);\r\n    uint256 remainderOfTokens = amountInMaximum-amountOfTokenUsed;\r\n    \r\n    // refund leftover Tokens to user\r\n    (bool success) = IERC20(tokenIn).transfer(msg.sender, remainderOfTokens);\r\n    require(success, \"refund failed\");\r\n    \r\n    return amountOfTokenUsed;\r\n  }\r\n\r\n    //--------------------------PROJECT STUFF-----------------------\r\n\r\n    Campaign[] public campaigns;\r\n\r\n    //map of mails\r\n    mapping(uint => string[]) mails;\r\n\r\n    //map of all donors of a certain campaign\r\n    mapping(uint256 => DonationStruct[]) public donors;\r\n\r\n    function isCampaignActive(uint _campaignId) override public view returns(bool) {\r\n        return campaigns[_campaignId].endTimestamp > block.timestamp;\r\n    }\r\n\r\n    function getCampaign(uint _campaignId) override public view returns(Campaign memory) {\r\n        return campaigns[_campaignId];\r\n    }\r\n\r\n    function getCampaigns() public view returns(Campaign[] memory){\r\n        return campaigns;\r\n    }\r\n\r\n    fallback() external{\r\n        revert();\r\n    }\r\n\r\n    function createCampaign(address payable _beneficiary, uint _endTimestamp) override external {\r\n        require(_endTimestamp > block.timestamp, \"SupportChildren::createCampaign: Campaign must end in the future\");\r\n\r\n        address payable beneficiary;\r\n        if(_beneficiary != address(0)) {\r\n            beneficiary = _beneficiary;\r\n        } else {\r\n            beneficiary = payable(msg.sender);\r\n        }\r\n\r\n        Campaign memory campaign = Campaign(_endTimestamp, beneficiary);\r\n        uint campaignId = campaigns.length;\r\n\r\n        campaigns.push(campaign);\r\n\r\n        emit CampaignCreated(campaignId, campaign);\r\n    }\r\n\r\n    function donateERC(uint _campaignId, address _token, uint _amount, string memory _mail) override external {\r\n        require(_campaignId < campaigns.length, \"SupportChildren::donate: Non existent campaign id provided\");\r\n        require(isCampaignActive(_campaignId), \"SupportChildren::donate: Campaign not active\");\r\n\r\n        address beneficiary = campaigns[_campaignId].beneficiary;\r\n\r\n        DonationStruct memory newDon;\r\n        newDon.from = payable(msg.sender);\r\n        newDon.amount = _amount;\r\n\r\n        donors[_campaignId].push(newDon);\r\n        mails[_campaignId].push(_mail);\r\n        IERC20(_token).transferFrom(msg.sender, beneficiary, _amount);\r\n        emit Donation(_campaignId, _amount, _token);\r\n    }\r\n\r\n    function donateETH(uint _campaignId, string memory _mail) override external payable {\r\n        require(_campaignId < campaigns.length, \"SupportChildren::donateETH: Non existent campaign id provided\");\r\n        require(isCampaignActive(_campaignId), \"SupportChildren::donateETH: Campaign not active\");\r\n        require(msg.value > 0, \"SupportChildren::donateETH: You must send ether\");\r\n\r\n        Campaign memory campaign = campaigns[_campaignId];\r\n        campaign.beneficiary.transfer(msg.value);\r\n\r\n        DonationStruct memory newDon;\r\n        newDon.from = payable(msg.sender);\r\n        newDon.amount = msg.value;\r\n\r\n        donors[_campaignId].push(newDon);\r\n        mails[_campaignId].push(_mail);\r\n\r\n\r\n        emit Donation(_campaignId, msg.value, address(0));\r\n    }\r\n\r\n\r\n    //--------------------------UNISWAP DONATIONS\r\n    //token to eth\r\n    function donateTokenToETHCamp(uint _campaignId, string memory _mail,address token, uint amountOut, uint amountInMax) public {\r\n        (uint256 tokensSpent) = convertTokenToExactEth(token, amountOut, amountInMax);\r\n        // donors[_campaignId].push(msg.sender);\r\n        mails[_campaignId].push(_mail);\r\n    }\r\n    //token to token\r\n    function donateTokenToTokenCamp(uint _campaignId, string memory _mail, address tokenIn, address tokenOut, uint amountOut, uint amountInMax) public {\r\n        (uint256 tokensSpent) = convertTokenToExactToken(tokenIn, tokenOut, amountOut, amountInMax);\r\n        // donors[_campaignId].push(msg.sender);\r\n        mails[_campaignId].push(_mail);\r\n    }\r\n\r\n\r\n}",
  "sourcePath": "C:/Users/Luka/Desktop/SaveChildrenV2.0/client/src/contracts/SupportChildren.sol",
  "compiler": {
    "name": "solc",
    "version": "0.8.6+commit.11564f7e.Emscripten.clang"
  },
  "schemaVersion": "3.4.1",
  "updatedAt": "2021-08-10T01:59:15.798Z",
  "networkType": "ethereum",
  "devdoc": {
    "kind": "dev",
    "methods": {
      "owner()": {
        "details": "Returns the address of the current owner."
      },
      "renounceOwnership()": {
        "details": "Leaves the contract without owner. It will not be possible to call `onlyOwner` functions anymore. Can only be called by the current owner. NOTE: Renouncing ownership will leave the contract without an owner, thereby removing any functionality that is only available to the owner."
      },
      "transferOwnership(address)": {
        "details": "Transfers ownership of the contract to a new account (`newOwner`). Can only be called by the current owner."
      }
    },
    "version": 1
  },
  "userdoc": {
    "kind": "user",
    "methods": {},
    "version": 1
  }
}