{
  "contractName": "TestUniswap",
  "abi": [
    {
      "inputs": [
        {
          "internalType": "address",
          "name": "_tokenIn",
          "type": "address"
        },
        {
          "internalType": "address",
          "name": "_tokenOut",
          "type": "address"
        },
        {
          "internalType": "uint256",
          "name": "_amountIn",
          "type": "uint256"
        },
        {
          "internalType": "uint256",
          "name": "_amountOutMin",
          "type": "uint256"
        },
        {
          "internalType": "address",
          "name": "_to",
          "type": "address"
        }
      ],
      "name": "swap",
      "outputs": [],
      "stateMutability": "nonpayable",
      "type": "function"
    },
    {
      "inputs": [
        {
          "internalType": "address",
          "name": "_tokenIn",
          "type": "address"
        },
        {
          "internalType": "address",
          "name": "_tokenOut",
          "type": "address"
        },
        {
          "internalType": "uint256",
          "name": "_amountIn",
          "type": "uint256"
        }
      ],
      "name": "getAmountOutMin",
      "outputs": [
        {
          "internalType": "uint256",
          "name": "",
          "type": "uint256"
        }
      ],
      "stateMutability": "view",
      "type": "function"
    }
  ],
  "bytecode": "0x608060405234801561001057600080fd5b50610f2f806100206000396000f3fe608060405234801561001057600080fd5b50600436106100365760003560e01c80633c50eec11461003b578063d5bcb9b51461006b575b600080fd5b610055600480360381019061005091906109df565b610087565b6040516100629190610c26565b60405180910390f35b61008560048036038101906100809190610a32565b610435565b005b6000606073c02aaa39b223fe8d0a0e5c4f27ead9083c756cc273ffffffffffffffffffffffffffffffffffffffff168573ffffffffffffffffffffffffffffffffffffffff161480610118575073c02aaa39b223fe8d0a0e5c4f27ead9083c756cc273ffffffffffffffffffffffffffffffffffffffff168473ffffffffffffffffffffffffffffffffffffffff16145b1561020c57600267ffffffffffffffff81111561013857610137610e60565b5b6040519080825280602002602001820160405280156101665781602001602082028036833780820191505090505b509050848160008151811061017e5761017d610e31565b5b602002602001019073ffffffffffffffffffffffffffffffffffffffff16908173ffffffffffffffffffffffffffffffffffffffff168152505083816001815181106101cd576101cc610e31565b5b602002602001019073ffffffffffffffffffffffffffffffffffffffff16908173ffffffffffffffffffffffffffffffffffffffff168152505061035a565b600367ffffffffffffffff81111561022757610226610e60565b5b6040519080825280602002602001820160405280156102555781602001602082028036833780820191505090505b509050848160008151811061026d5761026c610e31565b5b602002602001019073ffffffffffffffffffffffffffffffffffffffff16908173ffffffffffffffffffffffffffffffffffffffff168152505073c02aaa39b223fe8d0a0e5c4f27ead9083c756cc2816001815181106102d0576102cf610e31565b5b602002602001019073ffffffffffffffffffffffffffffffffffffffff16908173ffffffffffffffffffffffffffffffffffffffff1681525050838160028151811061031f5761031e610e31565b5b602002602001019073ffffffffffffffffffffffffffffffffffffffff16908173ffffffffffffffffffffffffffffffffffffffff16815250505b6000737a250d5630b4cf539739df2c5dacb4c659f2488d73ffffffffffffffffffffffffffffffffffffffff1663d06ca61f85846040518363ffffffff1660e01b81526004016103ab929190610c41565b60006040518083038186803b1580156103c357600080fd5b505afa1580156103d7573d6000803e3d6000fd5b505050506040513d6000823e3d601f19601f820116820180604052508101906104009190610aad565b905080600183516104119190610d55565b8151811061042257610421610e31565b5b6020026020010151925050509392505050565b8473ffffffffffffffffffffffffffffffffffffffff166323b872dd3330866040518463ffffffff1660e01b815260040161047293929190610bc6565b602060405180830381600087803b15801561048c57600080fd5b505af11580156104a0573d6000803e3d6000fd5b505050506040513d601f19601f820116820180604052508101906104c49190610af6565b508473ffffffffffffffffffffffffffffffffffffffff1663095ea7b3737a250d5630b4cf539739df2c5dacb4c659f2488d856040518363ffffffff1660e01b8152600401610514929190610bfd565b602060405180830381600087803b15801561052e57600080fd5b505af1158015610542573d6000803e3d6000fd5b505050506040513d601f19601f820116820180604052508101906105669190610af6565b50606073c02aaa39b223fe8d0a0e5c4f27ead9083c756cc273ffffffffffffffffffffffffffffffffffffffff168673ffffffffffffffffffffffffffffffffffffffff1614806105f6575073c02aaa39b223fe8d0a0e5c4f27ead9083c756cc273ffffffffffffffffffffffffffffffffffffffff168573ffffffffffffffffffffffffffffffffffffffff16145b156106ea57600267ffffffffffffffff81111561061657610615610e60565b5b6040519080825280602002602001820160405280156106445781602001602082028036833780820191505090505b509050858160008151811061065c5761065b610e31565b5b602002602001019073ffffffffffffffffffffffffffffffffffffffff16908173ffffffffffffffffffffffffffffffffffffffff168152505084816001815181106106ab576106aa610e31565b5b602002602001019073ffffffffffffffffffffffffffffffffffffffff16908173ffffffffffffffffffffffffffffffffffffffff1681525050610838565b600367ffffffffffffffff81111561070557610704610e60565b5b6040519080825280602002602001820160405280156107335781602001602082028036833780820191505090505b509050858160008151811061074b5761074a610e31565b5b602002602001019073ffffffffffffffffffffffffffffffffffffffff16908173ffffffffffffffffffffffffffffffffffffffff168152505073c02aaa39b223fe8d0a0e5c4f27ead9083c756cc2816001815181106107ae576107ad610e31565b5b602002602001019073ffffffffffffffffffffffffffffffffffffffff16908173ffffffffffffffffffffffffffffffffffffffff168152505084816002815181106107fd576107fc610e31565b5b602002602001019073ffffffffffffffffffffffffffffffffffffffff16908173ffffffffffffffffffffffffffffffffffffffff16815250505b737a250d5630b4cf539739df2c5dacb4c659f2488d73ffffffffffffffffffffffffffffffffffffffff166338ed173985858486426040518663ffffffff1660e01b815260040161088d959493929190610c71565b600060405180830381600087803b1580156108a757600080fd5b505af11580156108bb573d6000803e3d6000fd5b505050506040513d6000823e3d601f19601f820116820180604052508101906108e49190610aad565b50505050505050565b60006109006108fb84610cf0565b610ccb565b9050808382526020820190508285602086028201111561092357610922610e94565b5b60005b85811015610953578161093988826109ca565b845260208401935060208301925050600181019050610926565b5050509392505050565b60008135905061096c81610eb4565b92915050565b600082601f83011261098757610986610e8f565b5b81516109978482602086016108ed565b91505092915050565b6000815190506109af81610ecb565b92915050565b6000813590506109c481610ee2565b92915050565b6000815190506109d981610ee2565b92915050565b6000806000606084860312156109f8576109f7610e9e565b5b6000610a068682870161095d565b9350506020610a178682870161095d565b9250506040610a28868287016109b5565b9150509250925092565b600080600080600060a08688031215610a4e57610a4d610e9e565b5b6000610a5c8882890161095d565b9550506020610a6d8882890161095d565b9450506040610a7e888289016109b5565b9350506060610a8f888289016109b5565b9250506080610aa08882890161095d565b9150509295509295909350565b600060208284031215610ac357610ac2610e9e565b5b600082015167ffffffffffffffff811115610ae157610ae0610e99565b5b610aed84828501610972565b91505092915050565b600060208284031215610b0c57610b0b610e9e565b5b6000610b1a848285016109a0565b91505092915050565b6000610b2f8383610b3b565b60208301905092915050565b610b4481610d89565b82525050565b610b5381610d89565b82525050565b6000610b6482610d2c565b610b6e8185610d44565b9350610b7983610d1c565b8060005b83811015610baa578151610b918882610b23565b9750610b9c83610d37565b925050600181019050610b7d565b5085935050505092915050565b610bc081610dc7565b82525050565b6000606082019050610bdb6000830186610b4a565b610be86020830185610b4a565b610bf56040830184610bb7565b949350505050565b6000604082019050610c126000830185610b4a565b610c1f6020830184610bb7565b9392505050565b6000602082019050610c3b6000830184610bb7565b92915050565b6000604082019050610c566000830185610bb7565b8181036020830152610c688184610b59565b90509392505050565b600060a082019050610c866000830188610bb7565b610c936020830187610bb7565b8181036040830152610ca58186610b59565b9050610cb46060830185610b4a565b610cc16080830184610bb7565b9695505050505050565b6000610cd5610ce6565b9050610ce18282610dd1565b919050565b6000604051905090565b600067ffffffffffffffff821115610d0b57610d0a610e60565b5b602082029050602081019050919050565b6000819050602082019050919050565b600081519050919050565b6000602082019050919050565b600082825260208201905092915050565b6000610d6082610dc7565b9150610d6b83610dc7565b925082821015610d7e57610d7d610e02565b5b828203905092915050565b6000610d9482610da7565b9050919050565b60008115159050919050565b600073ffffffffffffffffffffffffffffffffffffffff82169050919050565b6000819050919050565b610dda82610ea3565b810181811067ffffffffffffffff82111715610df957610df8610e60565b5b80604052505050565b7f4e487b7100000000000000000000000000000000000000000000000000000000600052601160045260246000fd5b7f4e487b7100000000000000000000000000000000000000000000000000000000600052603260045260246000fd5b7f4e487b7100000000000000000000000000000000000000000000000000000000600052604160045260246000fd5b600080fd5b600080fd5b600080fd5b600080fd5b6000601f19601f8301169050919050565b610ebd81610d89565b8114610ec857600080fd5b50565b610ed481610d9b565b8114610edf57600080fd5b50565b610eeb81610dc7565b8114610ef657600080fd5b5056fea2646970667358221220e0d3342750f587a90ce1ea3d74f379b700b9fcbd9aeb32f0c1ad4784a4eccd8f64736f6c63430008060033",
  "immutableReferences": {},
  "source": "pragma solidity ^0.8;\r\n\r\nimport \"@openzeppelin/contracts/token/ERC20/IERC20.sol\";\r\nimport \"./Uniswap.sol\";\r\n\r\ncontract TestUniswap {\r\n    address private constant UNISWAP_V2_ROUTER =\r\n    0x7a250d5630B4cF539739dF2C5dAcb4c659F2488D;\r\n    address private constant WETH = 0xC02aaA39b223FE8D0A0e5C4F27eAD9083C756Cc2;\r\n\r\n    function swap(\r\n        address _tokenIn,\r\n        address _tokenOut,\r\n        uint _amountIn,\r\n        uint _amountOutMin,\r\n        address _to\r\n    ) external {\r\n        IERC20(_tokenIn).transferFrom(msg.sender, address(this), _amountIn);\r\n        IERC20(_tokenIn).approve(UNISWAP_V2_ROUTER, _amountIn);\r\n\r\n        address[] memory path;\r\n        if (_tokenIn == WETH || _tokenOut == WETH) {\r\n            path = new address[](2);\r\n            path[0] = _tokenIn;\r\n            path[1] = _tokenOut;\r\n        } else {\r\n            path = new address[](3);\r\n            path[0] = _tokenIn;\r\n            path[1] = WETH;\r\n            path[2] = _tokenOut;\r\n        }\r\n\r\n        IUniswapV2Router(UNISWAP_V2_ROUTER).swapExactTokensForTokens(\r\n            _amountIn,\r\n            _amountOutMin,\r\n            path,\r\n            _to,\r\n            block.timestamp\r\n        );\r\n    }\r\n\r\n    function getAmountOutMin(\r\n        address _tokenIn,\r\n        address _tokenOut,\r\n        uint _amountIn\r\n    ) external view returns (uint) {\r\n        address[] memory path;\r\n        if (_tokenIn == WETH || _tokenOut == WETH) {\r\n            path = new address[](2);\r\n            path[0] = _tokenIn;\r\n            path[1] = _tokenOut;\r\n        } else {\r\n            path = new address[](3);\r\n            path[0] = _tokenIn;\r\n            path[1] = WETH;\r\n            path[2] = _tokenOut;\r\n        }\r\n\r\n        // same length as path\r\n        uint[] memory amountOutMins =\r\n        IUniswapV2Router(UNISWAP_V2_ROUTER).getAmountsOut(_amountIn, path);\r\n\r\n        return amountOutMins[path.length - 1];\r\n    }\r\n}",
  "sourcePath": "C:/Users/Luka/Desktop/SaveChildrenV2.0/client/src/contracts/TestUniswap.sol",
  "compiler": {
    "name": "solc",
    "version": "0.8.6+commit.11564f7e.Emscripten.clang"
  },
  "schemaVersion": "3.4.1",
  "updatedAt": "2021-08-06T23:19:55.976Z",
  "devdoc": {
    "kind": "dev",
    "methods": {},
    "version": 1
  },
  "userdoc": {
    "kind": "user",
    "methods": {},
    "version": 1
  }
}